:100000000C94D2000C94FA000C94FA000C94FA00B0
:100010000C94FA000C94FA000C94FA000C94FA0078
:100020000C94FA000C94FA000C94FA000C94FA0068
:100030000C94FA000C94FA000C94341F0C94E51FF5
:100040000C94FA000C94FA000C94FA000C94FA0048
:100050000C94FA000C94FA000C94FA000C94FA0038
:100060000C94FA000C94FA000C942F210C940921A2
:100070000C94FA000C94FA000C94FA000C94FA0018
:100080000C94FA000C94FA000C94FA000C94FA0008
:100090000C94A5200C947B210C9455210C94FA000F
:1000A0000000000000000000000000000000000050
:1000B0000000000000000000010101010101010138
:1000C0000101010102020202020202020303030310
:1000D00003030404040405050505050606060607D2
:1000E00007070808080909090A0A0A0B0B0B0C0C78
:1000F0000D0D0D0E0E0F0F101011111212131314FF
:10010000141515161617181819191A1B1B1C1D1D66
:100110001E1F1F2021222223242526262728292AA4
:100120002A2B2C2D2E2F30313233343536373839B7
:100130003A3B3C3D3E3F4041424445464748494B9F
:100140004C4D4E50515254555658595A5C5D5E6054
:100150006163646667696A6C6D6F707273757778D6
:100160007A7C7D7F8182848688898B8D8F91929421
:1001700096989A9C9EA0A2A4A6A8AAACAEB0B2B42F
:10018000B6B8BABCBFC1C3C5C7CACCCED1D3D5D708
:10019000DADCDFE1E3E6E8EBEDF0F2F5F7FAFCFF9D
:1001A0000122F92A11241FBECFEFCDBFDFE3DEBF4E
:1001B00018E2A0E0B8E2EAE5FDE502C005900D9284
:1001C000A231B107D9F72CE2A2E1B8E201C01D9239
:1001D000A23FB207E1F710E0C1EDD0E004C02197E3
:1001E000FE010E94A92CC03DD107C9F70E946B25D2
:1001F0000C94032E0C940000FA01E61BF70BF7FD9C
:1002000007C0820F931F8417950754F4AC0108C0F0
:10021000281739072CF4821B930B48175907B4F39E
:10022000CA01089590E080E02091092C2817190652
:1002300021F118F19C01220F331FE0910A2CF0915B
:100240000B2CE20FF31F0190F081E02D1082E09162
:100250000A2CF0910B2CE20FF31F0190F081E02D9E
:100260001182E0910A2CF0910B2CE20FF31F019008
:10027000F081E02D12820196D7CF8EE190E080933D
:100280000C2C90930D2C10920E2C10920F2C8AE0B7
:1002900090E08093102C9093112C85E090E0809357
:1002A000122C9093132C89E190E08093142C90935E
:1002B000152C1092182C1092192C10921A2C1092A6
:1002C0001B2C10921C2C10921D2C10921E2C109284
:1002D0001F2C81E08093202C1092212C1092222C34
:1002E0001092232C089570E0282F082E000C330B59
:1002F000621773073CF19091012C282F291B30E0E5
:10030000220F331FE0910A2CF0910B2CE20FF31F08
:100310000190F081E02D1082E0910A2CF0910B2CDD
:10032000E20FF31F0190F081E02D118240910A2C21
:1003300050910B2C240F351FD901ED91FC911282A5
:100340008F5FD2CF08950F931F93CF93DF93E0E099
:1003500030E0962FA42F042E000CBB0B2A173B076E
:100360000CF443C05091012CA42FA51B8823D9F174
:10037000C091102CD091112CE92FC617D7075CF42F
:10038000E091162CF091172C8F010C1B1D0B6017A0
:1003900071072CF5EC2FB0E0AA0FBB1FC0910A2CFF
:1003A000D0910B2CCA0FDB1F0990D881C02DE88398
:1003B000C0910A2CD0910B2CCA0FDB1F0990D88159
:1003C000C02D1982C0910A2CD0910B2CAC0FBD1FEF
:1003D0000D90BC91A02D12961C924F5FBBCFE61BD7
:1003E000F70BF7FFD8CFE0E0D6CF8E2FDF91CF917C
:1003F0001F910F910895E5E4FBE284819581890FB7
:100400009927991F2681820F911D2781280F392F47
:10041000311D8085280F311D8185820F932F911DFD
:1004200091958195910992878387089530E020E026
:100430009091422C9217130629F120F1A901440F43
:10044000551FE091432CF091442CE40FF51F0190CF
:10045000F081E02D1082E091432CF091442CE40FC8
:10046000F51F0190F081E02D1182E091432CF09175
:10047000442CE40FF51F0190F081E02D82832F5F63
:100480003F4FD6CF0895880F991FE8E3FCE2A3857C
:10049000B485A80FB91F0D90BC91A02D1C92A38507
:1004A000B485A80FB91F0D90BC91A02D11961C9278
:1004B0000384F485E02DE80FF91F0190F081E02D11
:1004C000628308950F931F93CF93DF93EC012885E8
:1004D000222319F109851A852150D9F030E050E026
:1004E00040E06FEF7FEF80E090E00E941E2CF8016B
:1004F0004C815D81CF01801B910B8417950760F4BF
:100500004081429FC001439F900D112490833196FA
:10051000EFCF30E020E0EBCF1886DF91CF911F9135
:100520000F9108950F9391E0909378291092772975
:1005300060937529709376294093742920937329C9
:10054000109272291092712900937029880F80935C
:100550006F2923E030E044E050E080917429882343
:1005600041F020936D2930936E2980916F298E7F01
:100570000BC080917329882351F040936D295093CB
:100580006E2980916F2981608093A70808C08091AF
:100590007429811104C080917329882311F38091FB
:1005A00077298823E1F3809177298330B1F2809114
:1005B0007329882321F0809171290F9108958091EA
:1005C0007729823031F0853031F0813031F480E0AC
:1005D000F4CF81E0F2CF83E0F0CF84E0EECFE0EA29
:1005E000F8E091859066918722E030E020936D29B4
:1005F00030936E2980935F2910925E29089581E0DF
:1006000080935E2910925F2993E09093AA089091BD
:10061000AB0891FF10C010926B29E0915C29F0911A
:100620005D29099580936A2985E090E080936D2982
:1006300090936E29089510926C298093692986E021
:1006400090E0F4CF8F929F92AF92BF92CF92DF92C1
:10065000EF92FF92CF93DF9360342DE0720723E097
:100660008207910508F454C0611525E372072CE058
:100670008207910508F445C060387F4482419105A6
:1006800008F046C0C8E7D0E020E432E44FE050E094
:100690008090032890900428A0900528B090062808
:1006A000C501B4010E94502C69017A018AE0C81A80
:1006B000D108E108F108C501B40120E432E44FE0BB
:1006C00050E00E94502CDE010E943D2C28EE33E0C9
:1006D00040E050E00E94502CC21AD30AE40AF50A06
:1006E000F694E794D794C794C092A608DF91CF916F
:1006F000FF90EF90DF90CF90BF90AF909F908F9042
:100700000895CCE2D1E020E83AE146E050E0C0CFE5
:10071000C8EED3E020EA36E841E050E0B9CF60937C
:100720005A2970935B290895609358297093592929
:100730000895E0915A29F0915B29309741F0109289
:10074000572910925629099580915629089580E0DD
:100750000895E0915829F0915929309759F0309136
:10076000552920915429321728F010925529809349
:100770005429099408950895E091552980915429A8
:10078000E81730F4F0E0EC52F74D808190E00895E6
:100790008FEF9FEF089590915529809154292FEF65
:1007A0003FEF981748F4E92FF0E0EC52F74D208125
:1007B00030E09F5F90935529C90108958091542995
:1007C00090915529891B990B0895CF92DF92EF9252
:1007D000FF920F931F93CF93DF937C018A01EB016C
:1007E0006B01C40ED51ECC15DD0551F06991D70102
:1007F000ED91FC910190F081E02DC7010995F3CFB7
:10080000C801DF91CF911F910F91FF90EF90DF9082
:10081000CF9008952091562927FF08C021E030E0AD
:10082000FC012283338390E080E008958091572972
:10083000E82FF0E0EC5AF74D60838F5F80935729E3
:100840008093562981E090E00895682F87EA99E225
:100850000C940A04682F87EA99E20C940A04DC01DC
:10086000ED91FC91008CF18DE02D61E009940F93E6
:1008700080916D2990916E290197A1F4809178293A
:10088000811112C0062F20E04091562964E578E2DC
:10089000809153280E949202109257291092562953
:1008A0000F91089580E0F8CF81E0F6CF6093532850
:1008B00010925729109256290895EF92FF920F93A4
:1008C0001F93CF93DF936091B22C87EA99E20E9445
:1008D000560490E080E00E94250410E007E080913B
:1008E000B42C8823D9F1802F811B90E0880F991FA9
:1008F0002091B02C3091B12C820F931FFC01C0814C
:10090000D1818091B52C882379F020E190E080E0BE
:10091000880F991FAE0141705527842B952BD695D2
:10092000C7952150A9F7EC017E01FF248091B32CDB
:100930008823B1F08D2F90E00E942A04C7010E9405
:100940002A041F5F183059F687EA99E2DF91CF91A8
:100950001F910F91FF90EF900C942F04812FC5CF22
:10096000C7010E942A048D2F90E0E9CFCF934091D8
:10097000B02C5091B12CC0E061E070E08091AB2CC4
:10098000C817C0F59091AC2C81508C1B911101C0FF
:100990008C2F90E0FC01EE0FFF1FEA57F34D21A9C9
:1009A000277030E0220F331FDA01A20FB31F2D9101
:1009B0003C911197FC01EE0FFF1FEA54F34D80812B
:1009C0008F70FB0102C0EE0FFF1F8A95E2F7CF0187
:1009D000EC2FF0E0EA57F34DE581EE2331F0822B66
:1009E000932B8D939C93CF5FC9CF80959095822355
:1009F0009323F7CFCF910C945D04DC01ED91FC9132
:100A0000048CF58DE02D21E009940F9384ED98E29C
:100A1000809360299093612980916D2990916E292E
:100A20000197C9F480917829811117C0FA014138E2
:100A3000510510F0E0E8F0E0022F862F2E2F40E065
:100A400070E060E00E949202109255298093542930
:100A500090E00F91089580E0F7CF81E0F5CFCB01D2
:100A6000BA010C942203E0EAF8E01382168281E0D6
:100A700085831486118610926D2910926E2908952F
:100A800010925529109254291092572910925629E4
:100A900080916D2990916E29892BD9F482E090E0A4
:100AA00080936D2990936E2910926C2910926B2976
:100AB00010925E2910925F29109252281092692993
:100AC000660F6093AC0881EE8093A90881E0809363
:100AD000A30889E993E080935C2990935D2984E5DC
:100AE00098E2809362299093632989EA93E0809346
:100AF00067299093682984ED98E280936429909304
:100B0000652980E8809366290895FC015489458908
:100B1000252F30E0842F90E0821B930B541710F0A8
:100B2000CF96089501970895FC01928983899817BB
:100B300061F0A389AE0FBF2FB11D59968C91938997
:100B40009F5F9F73938B90E008958FEF9FEF0895C1
:100B5000FC0192898389981731F08389E80FF11D90
:100B6000818D90E008958FEF9FEF0895FC019289A9
:100B70002389892F90E0805C9F4F821B91098F739E
:100B800099270895CF93DF93EC01E881F9810680DE
:100B9000F781E02D0995EC85FD8586818F7386832D
:100BA000EC85FD8585818F7585838B898A8B198A74
:100BB000DF91CF910895CF93DF93FC0194898589CC
:100BC000C485D585981306C08D818F7D8D83DF9177
:100BD000CF910895A589AE0FBF2FB11DA75ABF4F62
:100BE0002C91858990E001968F739927858B80E4FD
:100BF0008C83A485B58512962C9394898589981346
:100C0000E6CFA485B58515968C9115978F7D1596A1
:100C10008C9387898823D9F2808D80931301178A5A
:100C2000D6CFDC011C96ED91FC910FB607FE03C0F8
:100C3000258125FD04C0248125FD0C94DB05089544
:100C4000EF92FF920F931F93CF93DF93EC0181E01C
:100C5000898B9C898D8998131CC0AC85BD851496A1
:100C60008C91149785FF15C012966C93AC85BD8549
:100C700080E414968C93EC85FD8585818F7D85833A
:100C800081E090E0DF91CF911F910F91FF90EF9065
:100C900008958091110180FF08C080911301888F11
:100CA0008E898093130181E08F8BF62E0C8910E0E2
:100CB0000F5F1F4F0F731127E02E8D898E1104C017
:100CC000CE010E941106F9CFEC89EC0FFD2FF11D2A
:100CD000E75AFF4FF0820C8BEC85FD8585818062A1
:100CE000CECF60E28EE49AE20C942006CF93DF939D
:100CF000FC0121892223C9F0EC018091110180FFC0
:100D000008C080911301808F86898093130181E050
:100D1000878BEC85FD85858185FD03C0848186FDFB
:100D200004C0CE010E941106F4CFDF91CF91089547
:100D3000CF93DF9390E0FC01EC53F34620812F3FEB
:100D400071F0FC01E252F346A08130E2A39FD00192
:100D50001124BC5F6130710529F411962C93DF9149
:100D6000CF91089586559346EC01E881EF3F89F0D5
:100D7000CD014096E80FF92FF11D9FB7F894129618
:100D80002C9380816230710539F4886080839FBF25
:100D9000E6CFF0E0E0E0F1CF877FF8CF8B3210F4C0
:100DA0000C94980608951092552910925429109287
:100DB00057291092562980916D2990916E29892B7F
:100DC00041F562E070E086E10E94980662E070E022
:100DD00087E10E9498068091E3058093E30581E016
:100DE00090E080936D2990936E2910927129109252
:100DF0007229109278291092772981EC8093A308A8
:100E000060EA76E881E090E00E94220381E080932E
:100E1000A5080895282F30E0F901E057F346E08156
:100E2000EE2309F1E13021F0F0F0E63098F008957A
:100E30004091010A26553346F90120812C5F81E05B
:100E400090E001C0880F2A95EAF78095842380936B
:100E5000010A089580E1E89FF0011124E05AF54F5E
:100E600081818F7E818308950F931F93CF93082FE5
:100E700010E0F801EC53F346C081CF3FB9F08B325C
:100E800010F40E940A07F801E252F346E08180E282
:100E9000E89FF0011124FC5F8085C82381E090E089
:100EA00009F480E0CF911F910F91089580E090E0C8
:100EB000F9CFFF920F931F93CF93DF938B32D8F428
:100EC000082F10E0F801EC53F346F0809FEFF9167D
:100ED00091F0EB010E940A07F801E252F346E0812B
:100EE00080E2E89FF0011124FC5F80818F2159F09E
:100EF000CD2B39F4F682DF91CF911F910F91FF90A6
:100F00000895F582F8CFD801A655B3468C91309755
:100F100071F08F3F61F07096E80FF11D9FB7F89464
:100F20008081CD2B39F4877F80839FBFE4CFF0E0B1
:100F3000E0E0F4CF8860F8CFCF92DF92EF92FF929B
:100F40000F931F93CF93DF93EC016A017B01022F74
:100F50008989882339F0E881F9810288F389E02DB5
:100F6000CE01099598898091E205892B8093E2054D
:100F70001FB7F89460E070E281EA97E0A70196015C
:100F80000E94502C69017A018FEFC81AD80AE80A2A
:100F9000F80AF694E794D794C794EC85FD8586818A
:100FA0008D7F8683EC85FD8586818683198AA09155
:100FB00023110A2E000CBB0BA70196010E94482C9E
:100FC00020E034E040E050E00E941E2CEC85FD85DE
:100FD000C20ED31EE41EF51EC086D186EC85FD85AB
:100FE0000783EC85FD858681806C8683EC85FD8595
:100FF0008581806885838E8562E070E00E94CE06E0
:101000008F8561E070E00E9459078F8561E070E094
:101010000E94CE061FBFDF91CF911F910F91FF90CD
:10102000EF90DF90CF900895CF93DF938FB7F89430
:1010300020914E2830914F284091502850915128AE
:10104000E091BA0A9091B60A90FF06C02F5F3F4F19
:101050004F4F5F4FE091BA0A8FBFA0914C28B091DB
:101060004D28C0914A28D0914B280E943D2CEC9FDE
:101070009001ED9F300D1124620F731F811D911D92
:10108000DF91CF9108958F929F92AF92BF92CF92AE
:10109000DF92EF92FF924B015C010E9414086B01FA
:1010A0007C01A8EEB3E0A50194010E943D2CC60E80
:1010B000D71EE81EF91EC616D706E806F90618F46C
:1010C0000E941408F8CF0E9414086C157D058E0547
:1010D0009F05C8F3FF90EF90DF90CF90BF90AF9047
:1010E0009F908F9008952FB7F89460914628709143
:1010F000472880914828909149282FBF08950F9341
:101100001F930E9473080091862C1091872C2091C8
:10111000882C3091892C601B710B820B930B6233EE
:1011200071058105910590F10E9473086093862CEA
:101130007093872C8093882C9093892C20918A2CF3
:10114000422F50E08091A72C90E031E0E92F092E4A
:10115000000CFF0BE417F5075CF4EA57F34D181683
:1011600014F0158203C09817E4F735839F5FEECF24
:101170009091A82C911113C08F5F682F082E000C3E
:10118000770B461757072CF08093A72C1F910F91D0
:1011900008952093A72C81E08093A82CF7CF1816F0
:1011A0001CF481508093A72C8091A72C8111EECF45
:1011B0001092A82CEBCF0F931F93CF93DF930E9435
:1011C00073080091862C1091872C2091882C3091E7
:1011D000892C601B710B820B930B663471058105A2
:1011E000910508F441C00E9473086093862C7093A7
:1011F000872C8093882C9093892C60918A2CE62FE1
:10120000F0E08091A72C482F082E000C550B415080
:10121000510990E0DA01A557B34D71E0292F092E4D
:10122000000C330B2E173F075CF42417350719F415
:101230007C939F5FF3CF2A57334DE9011D82F9CF8D
:101240009091A82C911115C08F5F282F082E000CAB
:10125000330B2E173F071CF48093A72C05C0609317
:10126000A72C81E08093A82CDF91CF911F910F9143
:1012700008958150823084F781E08093A72C1092EA
:10128000A82CF2CF0F931F93CF93DF930E94730884
:101290000091862C1091872C2091882C3091892CDC
:1012A000601B710B820B930B6233710581059105F5
:1012B00008F453C00E9473086093862C7093872CA7
:1012C0008093882C9093892C90918A2CA92FB0E040
:1012D0008091A92C282F082E000C330BE9012196B0
:1012E000BD0161507109621B730B8B010F5F1F4FB2
:1012F00040E051E0242F042E000C330B2A173B074B
:10130000D4F4F901EA57F34D913140F4481719F03C
:101310002617370771F455834F5FECCF4817D9F381
:101320002C173D07C1F326173707A9F320173107FC
:1013300091F31582F1CF2091A82C21111AC08F5F53
:101340009695482F082E000C550B692F6150770B8E
:10135000461757073CF48093A92CDF91CF911F913A
:101360000F91089591509093A92C81E08093A82C1F
:10137000F4CF18161CF481508093A92C8091A92CCD
:1013800018165CF31092A82CE8CF4F925F926F92E0
:101390007F928F929F92AF92BF92CF92DF92EF9205
:1013A000FF920F931F93CF93DF93FC015A01E90142
:1013B000662309F489C080910C2C90910D2C8093A8
:1013C000A5299093A62980900E2C90900F2C8092A6
:1013D000A3299092A4292091102C3091112C2093B4
:1013E000A1293093A2296090122C7090132C609246
:1013F0009F297092A0294090142C5090152C409257
:101400009D2950929E29BA01681B790B77FF03C072
:10141000719561957109CF010E94952C60939B296C
:1014200070939C29BE016819790977FF03C07195F3
:1014300061957109CF010E94952C60939929709351
:101440009A29B801621B730B77FF03C071956195F0
:101450007109CF010E94952C609397297093982968
:10146000B7016619770977FF03C071956195710916
:10147000CF010E94952C6093952970939629B6010F
:101480006419750977FF03C0719561957109CF01E2
:101490000E94952C609393297093942981E090E0A9
:1014A000809391299093922980938F2990939029EA
:1014B00080938D2990938E2980938B2990938C29EA
:1014C0008093892990938A290E9473084090FD2B6C
:1014D0005090FE2B6090FF2B7090002CAB01BC0154
:1014E000441955096609770980910C2C90910D2CAF
:1014F000092E000CAA0BBB0B481759076A077B077C
:1015000008F41AC10E9473086093FD2B7093FE2BA0
:101510008093FF2B9093002C8091102C9091112C94
:10152000880F991F2091122C3091132C820F931F3A
:101530008093162C9093172C8091202C882309F1EE
:101540006091182C7091192C2091022C4091012C43
:1015500081E00E94A3012091182C3091192C8091D8
:10156000162C9091172C2817390708F022C2809169
:101570000E2C90910F2C820F931F8093182C909318
:10158000192C8091212C811114C08091162C9091DE
:10159000172C2091142C3091152C821B930B209129
:1015A000182C3091192C8217930718F481E080933E
:1015B000212C8091212C882309F160911A2C7091A3
:1015C0001B2C2091042C4091032C81E00E94A3014C
:1015D00020911A2C30911B2C8091162C9091172C55
:1015E0002817390708F0F2C180910E2C90910F2C2A
:1015F000820F931F80931A2C90931B2C8091222C86
:10160000811114C08091162C9091172C2091142CCC
:101610003091152C821B930B20911A2C30911B2C8E
:101620008217930718F481E08093222C60911C2C80
:1016300070911D2C2091062C4091052C8091222C1C
:101640000E94A3018091222C882309F160911C2C17
:1016500070911D2C2091062C4091052C81E00E9458
:10166000A30120911C2C30911D2C8091162C90915F
:10167000172C2817390708F0B6C180910E2C9091CD
:101680000F2C820F931F80931C2C90931D2C809104
:10169000232C811114C08091162C9091172C20912D
:1016A000142C3091152C821B930B20911C2C309103
:1016B0001D2C8217930718F481E08093232C8091CE
:1016C000232C882309F160911E2C70911F2C2091EE
:1016D000082C4091072C81E00E94A30120911E2C30
:1016E00030911F2C8091162C9091172C28173907B8
:1016F00008F086C180910E2C90910F2C820F931FC1
:1017000080931E2C90931F2C8091202C811114C04B
:101710008091162C9091172C2091142C3091152C1F
:10172000821B930B20911E2C30911F2C8217930744
:1017300018F481E08093202C0E9473084090242CA0
:101740005090252C6090262C7090272CAB01BC016A
:10175000441955096609770980919B2990919C2924
:10176000092E000CAA0BBB0B481759076A077B0709
:10177000E8F00E9473086093242C7093252C8093CA
:10178000262C9093272C20919129309192296091B9
:10179000A5297091A629A50180910C2C90910D2C62
:1017A0000E94FC0080930C2C90930D2C0E947308D7
:1017B0008090282C9090292CA0902A2CB0902B2C33
:1017C000AB01BC01481959096A097B098091992923
:1017D00090919A29092E000CAA0BBB0B48175907A8
:1017E0006A077B07E8F00E9473086093282C7093C7
:1017F000292C80932A2C90932B2C20918F29309187
:1018000090296091A3297091A429AE0180910E2C9A
:1018100090910F2C0E94FC0080930E2C90930F2C23
:101820000E94730880902C2C90902D2CA0902E2C30
:10183000B0902F2CAB01BC01481959096A097B09EA
:101840008091972990919829092E000CAA0BBB0B27
:10185000481759076A077B0738F10E94730860939D
:101860002C2C70932D2C80932E2C90932F2CC09188
:10187000A129D091A22920918D2930918E29A801EA
:10188000BE018091102C9091112C0E94FC0080933D
:10189000102C9093112C0C171D0734F40B9724F483
:1018A0001092102C1092112C0E9473080091302C71
:1018B0001091312C2091322C3091332CAB01BC0192
:1018C000401B510B620B730B8091952990919629C7
:1018D000092E000CAA0BBB0B481759076A077B0798
:1018E000E8F00E9473086093302C7093312C809341
:1018F000322C9093332C20918B2930918C2960913C
:101900009F297091A029A7018091122C9091132CEE
:101910000E94FC008093122C9093132C0E94730859
:101920000091342C1091352C2091362C3091372C8D
:10193000AB01BC01401B510B620B730B80919329CF
:1019400090919429092E000CAA0BBB0B481759073C
:101950006A077B07E8F00E9473086093342C709349
:10196000352C8093362C9093372C209189293091F7
:101970008A2960919D2970919E29A6018091142C3D
:101980009091152C0E94FC008093142C9093152CA0
:10199000DF91CF911F910F91FF90EF90DF90CF904B
:1019A000BF90AF909F908F907F906F905F904F907F
:1019B00008956091022C8091012C0E947301109275
:1019C000182C1092192C1092202CDBCD6091042C35
:1019D0008091032C0E94730110921A2C10921B2CE0
:1019E0001092212C0BCE6091062C8091052C0E9428
:1019F000730110921C2C10921D2C1092222C47CE99
:101A00006091082C8091072C0E94730110921E2C6B
:101A100010921F2C1092232C77CECF92DF92EF9250
:101A2000FF920F931F9322E3C22ED12C34E6E32EB4
:101A3000F12C04E610E025E030E044E150E00E94A3
:101A4000C5091F910F91FF90EF90DF90CF900895FF
:101A5000CF92DF92EF92FF920F931F9326E4C22E54
:101A6000D12C32E3E32EF12C06E910E02AE030E03D
:101A70004FE050E00E94C5091F910F91FF90EF9039
:101A8000DF90CF900895CF92DF92EF92FF920F9365
:101A90001F9398ECC92ED12CF12CE12C0FEF10E004
:101AA00029E130E045E050E0682F88E893E10E94AA
:101AB000C5091F910F91FF90EF90DF90CF9008958F
:101AC0000F931F93CF93DF93EA016623E1F02091F8
:101AD000472C3091482C2093872930938829BA01CC
:101AE000621B730B77FF03C07195619571090E94AA
:101AF000952C609385297093862981E090E08093EE
:101B00008329909384290E94730800917F29109162
:101B100080292091812930918229AB01BC01401B91
:101B2000510B620B730B8091852990918629092EA8
:101B3000000CAA0BBB0B481759076A077B0770F10B
:101B40000E94730860937F29709380298093812974
:101B50009093822920918329309184298091472C68
:101B60009091482C4091872950918829BE01641B8F
:101B7000750B77FD07C0820F931F8C179D0754F4D8
:101B8000EC0108C0281739072CF4821B930BC817E7
:101B9000D907B4F3C093472CD093482CDF91CF9151
:101BA0001F910F9108950F931F93CF9380917E29DA
:101BB000811120C00E94730800913E2C10913F2C8F
:101BC0002091402C3091412C601B710B820B930BA8
:101BD000693B7B408105910560F10E947308609329
:101BE0003E2C70933F2C8093402C9093412C81E0AD
:101BF00080937E290E94730800913E2C10913F2C07
:101C00002091402C3091412C601B710B820B930B67
:101C1000653F71408105910560F00E9473086093F3
:101C20003E2C70933F2C8093402C9093412C10922B
:101C30007E29C0E08091422CC81788F4C1110BC0E6
:101C400080917E29882339F064E690E080E00E944C
:101C50004302CF5FEFCF60E08C2F90E0F8CF10927F
:101C6000452C81508093462CCF911F910F91089560
:101C70000F931F93CF93DF93EC010E9473080091A1
:101C80003E2C10913F2C2091402C3091412CAB01E7
:101C9000BC01401B510B620B730BCE01DD0FAA0B75
:101CA000BB0B481759076A077B0750F10E9473085E
:101CB00060933E2C70933F2C8093402C9093412C4A
:101CC000C0E02091422C30E09091452C4C2F0C2EFE
:101CD000000C550B421753074CF464E6C9170CF07F
:101CE00060E0CA010E944302CF5FEBCF492F092E6B
:101CF000000C550B4217530744F49F5F9093452CFB
:101D0000DF91CF911F910F9108951092452CF8CF3C
:101D10004FE050E0682F88E893E10E94600D8091C9
:101D2000472C9091482C0C94380E48E250E00E94C9
:101D3000600D8091472C9091482C0C94380E0F9395
:101D40001F930E94730800917A2910917B2920919A
:101D50007C2930917D29AB01BC01401B510B620BEA
:101D6000730B423151056105710508F448C0D90172
:101D7000C8014196A11DB11D80937A2990937B29BA
:101D8000A0937C29B0937D2950E08091DD2B5817DA
:101D9000B0F5252F30E0220F331FE091DE2BF091BC
:101DA000DF2BE20FF31F0190F081E02D4081918144
:101DB00082814430F0F043509430E8F09350843006
:101DC000E0F083504083E091DE2BF091DF2BE20FB7
:101DD000F31F0190F081E02D91836091DE2B7091D3
:101DE000DF2B260F371FD901ED91FC9182835F5FB6
:101DF000CCCF40E0E1CF90E0E2CF80E0E3CF1F9195
:101E00000F910895AF92BF92CF92DF92EF92FF921F
:101E10000F931F93CF93DF936C017B018B01040F12
:101E2000151FEB015E01AE18BF08C017D10759F0AE
:101E30006991D601ED91FC910190F081E02DC601F0
:101E40000995892B79F7C501DF91CF911F910F91EA
:101E5000FF90EF90DF90CF90BF90AF90089590E00B
:101E600080E00895FC01A485B58511968C911197A9
:101E700081FD1BC06C9182898F5F8F739389981746
:101E800039F0A289AE0FBF2FB11D59966C93828B8A
:101E9000E756FF4F80819181009741F0DC01ED9181
:101EA000FC910190F081E02D09948C91089581E0DE
:101EB00008950F931F93DC0112968D919C911397B7
:101EC00068177907C0F518968C911897882361F0E8
:101ED000489FA0011124452F829F90011124232F98
:101EE000809F80011124012F1E968C911E971996B8
:101EF000ED91FC911A971B969C911B9789131EC01C
:101F0000CB01880F991F680F791F6E0F7F1F1B96DB
:101F1000EC911B97E60FF72FF11D40831C96EC9177
:101F20001C97E60FF72FF11D20831D968C91680FEB
:101F3000711DFB0100831F910F910895660F771F9C
:101F4000660F771F6E0F7F1FFB01E80FF11D1082D8
:101F5000DECFCF92DF92EF92FF920F931F93CF933A
:101F6000DF93CDB7DEB72997CDBFDEBF8C01DC0193
:101F700019968D919C91892B09F473C00E941408C5
:101F8000F801C784D088E188F2886C157D058E053C
:101F90009F0520F46787708B818B928BF801C78433
:101FA000D088E188F2886C197D098E099F096C320E
:101FB00071408105910510F3F894D80114968D9124
:101FC0009C91159789839A831996ED91FC917F01D5
:101FD000BFEFEB1AFB0A80818987F80190810388A3
:101FE000F489E02DD80155968C91992309F445C0C8
:101FF0009081982B98879081809589238F838F81FA
:102000008C8388E08B8358856F8149853B812C8147
:1020100089819A81D701508347FD252F3A952083E6
:10202000262F39F0441F00C000006083000000C06C
:10203000F2CF38E04D9160830000019761F7D8013D
:102040005396ED93FC93549749873B832C83898364
:102050009A8378940E941408F8016787708B818BAB
:10206000928B2996CDBFDEBFDF91CF911F910F914B
:10207000FF90EF90DF90CF9008959081982B9887F4
:102080009081809589238F838F818E8388E08D83D3
:1020900058856F8149853D812E8189819A81D7013B
:1020A000508347FD252F00C000C0208300C000C022
:1020B00000C000C000C060830000262F3A9541F0A8
:1020C000441F000000C000C000C000C000C0E8CF36
:1020D00038E04D9100C0608300C0019709F7D80136
:1020E0005396ED93FC93549749873D832E83AFCF4E
:1020F000CF93DF93EC018E819F8197FD09C061E052
:1021000070E00E94CE0670E060E08E810E94590768
:1021100081E08983DF91CF9108952F923F924F9272
:102120005F926F927F928F929F92AF92BF92CF9267
:10213000DF92EF92FF920F931F93CF93DF93CDB770
:10214000DEB73B01FA01222369F0DB018D919C91FE
:10215000D8018D939C938E159F0509F047C0D60139
:102160001D921C92EF2B19F4F301E082F182D3014E
:102170008D919C918E159F0509F451C00E947308A2
:10218000F40120813181428153811B012C01221AEB
:10219000330A440A550AB201A101D6018D919C91DE
:1021A000092E000CAA0BBB0B481759076A077B07BF
:1021B000D8F00E947308F401608371838283938353
:1021C000D3018D919C91F801208131811701221A50
:1021D000330A37FC1AC0A80EB91EAE14BF040CF4A3
:1021E0007501D301ED92FC9280E01AC0B701681B23
:1021F000790B77FF03C0719561957109CF010E943A
:10220000952CD6016D937C93ADCFA816B9064CF7EB
:102210008A199B09E816F90624F77C01E2CF81E0D0
:10222000DF91CF911F910F91FF90EF90DF90CF90B2
:10223000BF90AF909F908F907F906F905F904F90E6
:102240003F902F9008957F928F929F92AF92BF926E
:10225000CF92DF92EF92FF920F931F93CF93DF9372
:10226000EC01762E28EC30E0DC010E94AF2C24E655
:1022700030E040E050E00E94502CA901FFE48F2E96
:10228000FCE29F2EA2E0AA2EB12CBAE6CB2EBCE235
:10229000DB2EF12CE12C04E61CE2272D6EE57CE21E
:1022A00089E49CE20E948D10772029F01092792910
:1022B00081E08093072880917929811133C02CE82F
:1022C00030E0DE010E94AF2C24E630E040E050E038
:1022D0000E94502CA90137E5832E3CE2932E62E048
:1022E000A62EB12C7EE6C72E7CE2D72EEE24EA94F1
:1022F000F12C08E61CE2272D62E67CE289E49CE2F0
:102300000E948D1080937929DF91CF911F910F91B9
:10231000FF90EF90DF90CF90BF90AF909F908F9005
:102320007F900895709007282CE330E0DE010E9432
:10233000AF2C24E630E040E050E00E94502CA90190
:1023400087E5882E8CE2982E92E0A92EB12C2EE6FD
:10235000C22E2CE2D22EF12CE12C08E61CE2272D15
:1023600062E67CE289E49CE20E948D10772061F2B3
:1023700010920728C9CF3F924F925F926F927F923F
:102380008F929F92AF92BF92CF92DF92EF92FF9285
:102390000F931F93CF93DF93EC01362E2BE430E0A5
:1023A000DC010E94AF2C24E6422E512C612C712CB2
:1023B000A30192010E94502CA9013FE4832E3CE22C
:1023C000932EAA24A394B12C7AE6C72E7CE2D72EB2
:1023D000EE24EA94F12C04E61CE2232D6EE57CE267
:1023E00089E49CE20E948D1024E630E0DE010E9428
:1023F000AF2CA30192010E94502CA901F7E58F2E6A
:10240000FCE29F2EAAE0AA2EB12CBEE6CB2EBCE2A7
:10241000DB2EF12CE12C08E61CE2232D62E67CE2A7
:1024200089E49CE20E948D10DF91CF911F910F9162
:10243000FF90EF90DF90CF90BF90AF909F908F90E4
:102440007F906F905F904F903F9008954F925F9272
:102450006F927F928F929F92AF92BF92CF92DF92B4
:10246000EF92FF920F931F93CF93DF93CDB7DEB719
:102470002597CDBFDEBF6D832C01990F66087708C5
:10248000C301B20122E330E040E050E00E94502C52
:1024900029833A834B835C8388EB882E8BE2982ECA
:1024A000AA24A394B12C23EDC22E2BE2D22E32E328
:1024B000E32EF12C0DEC1BE22D8149815A8167EC52
:1024C0007BE282EB9BE20E948D104CEB842E4BE270
:1024D000942E55EDC52E5BE2D52E0FEC1BE22D811F
:1024E00049815A8169EC7BE282EB9BE20E948D106C
:1024F000C301B2012FEF30E040E050E00E94502CC9
:10250000A90160EC862E6BE2962E77EDC72E7BE25A
:10251000D72EEE24EA94F12C01ED1BE22D816BEC19
:102520007BE282EB9BE20E948D102596CDBFDEBF41
:10253000DF91CF911F910F91FF90EF90DF90CF909F
:10254000BF90AF909F908F907F906F905F904F90D3
:1025500008950F931F93CF93DF93EC0110E02C8924
:10256000812F012E000C990B2817190669F064F0D1
:102570006A89610F70E0098D2F894D898881998161
:102580000E94590F1F5FEBCFDF91CF911F910F91E9
:1025900008950F931F93CF93DF93EC018A818B8370
:1025A00088819981992361F030E020E08B3218F422
:1025B0000E9434079C0191E0232B61F490E00AC053
:1025C00030E020E08B3218F40E9434079C0191E047
:1025D000232BA1F79C838C819D81891739F08D83F2
:1025E0000E9473086E837F83888799870E9473088F
:1025F0000E811F8128853985601B710B820B930B1F
:10260000633371058105910520F08C819A818913CE
:102610008A838A81DF91CF911F910F91089562E0A3
:1026200070E0FC0180810C94CE06CF93DF93EC0127
:102630008881882379F08A81882361F070E060E0E6
:1026400089810E9459070E9473086F837887898760
:102650009A871A82DF91CF9108950F931F93CF939A
:10266000DF93EC018881882329F18A81811122C0BE
:102670000E9473080F81188529853A85601B710BAC
:10268000820B930BEB89FC890081118122813381BC
:10269000601771078207930768F061E070E0898135
:1026A0000E9459070E9473086B837C838D839E83ED
:1026B00081E08A83DF91CF911F910F9108950F934D
:1026C0001F93CF93DF93EC018881882309F43FC0E7
:1026D0008A818823E1F18F859889892BD1F00E9426
:1026E00073080B811C812D813E81AB01BC01401B15
:1026F000510B620B730B8F859889B0E0A0E04817EF
:1027000059076A077B0728F01F86188ACE010E94A6
:1027100015130E9473080B811C812D813E81601B63
:10272000710B820B930BE989FA8900811181228157
:102730003381601771078207930748F01F86188A54
:10274000CE01DF91CF911F910F910C941513DF9162
:10275000CF911F910F910895CF93DF93EC012881C2
:10276000222351F061E070E089810E94CE06CE0103
:10277000DF91CF910C9415131A82DF91CF910895B8
:102780000F931F930E9473080091322810913328F1
:102790002091342830913528601B710B820B930BEC
:1027A00021E0673971058105910508F420E0822F49
:1027B0001F910F910895909131288823A1F09111D4
:1027C00024C00E94C013882301F10E947308609303
:1027D000322870933328809334289093352881E0F1
:1027E000809331280895992381F00E94C013882393
:1027F00061F00E94730860933228709333288093AD
:10280000342890933528109231280895CF93811160
:1028100003C080E0CF910895C62F0E94C013882383
:10282000C1F3C0933F2810923E28F4CFCF92DF929D
:10283000EF92FF920F931F93CF93DF93C82FD62F62
:102840000E9473080091702B1091712B2091722BB4
:102850003091732B601B710B820B930BC090802BFC
:10286000D090812BE090822BF090832B2091452BF0
:102870006C157D058E059F05B8F4211103C081E01C
:102880008093452B8091452B811113C0D0933F2815
:1028900010923E2881E0DF91CF911F910F91FF9020
:1028A000EF90DF90CF900895222361F31092452B93
:1028B000E9CF0E94730800913A2810913B2820919B
:1028C0003C2830913D28AB01BC01401B510B620BF1
:1028D000730BEC2FF0E0EE0FFF1FE05EF3468081FC
:1028E000918186599109B0E0A0E0481759076A071D
:1028F0007B0760F680E0CFCFDC01ED91FC91008892
:10290000F189E02D23E030E009940F93E22FF0E00D
:10291000E056FF4F0491E42FF0E0E056FF4F249182
:10292000E62FF0E0E056FF4F4491FC01668170E035
:10293000808191810E94590F0F91089526E946E9FF
:1029400066E987E99BE20C94851420E044E66FEF8A
:102950008EE89BE20C94851420E048EC6FEF0C9419
:10296000851420E040E06FEF0C94851420E040E0F7
:1029700060E00C9485140F931F93CF93DF93EC01C9
:10298000892B09F440C080919E2B811105C01092C3
:102990009F2B81E080939E2B0E9473080091992BBE
:1029A00010919A2B20919B2B30919C2BAB01BC0159
:1029B000401B510B620B730BCE01B0E0A0E0481737
:1029C00059076A077B0790F00E9473086093992B60
:1029D00070939A2B80939B2B90939C2B80919F2B91
:1029E000882349F00E949E1410929F2BDF91CF9173
:1029F0001F910F91089587E99BE20E94B61481E030
:102A000080939F2BF3CF0E949E1410929E2BEECFAB
:102A10000F931F93CF93DF93EC01892B09F440C0F0
:102A20008091952B811105C01092962B81E08093A7
:102A3000952B0E9473080091902B1091912B20915F
:102A4000922B3091932BAB01BC01401B510B620BBD
:102A5000730BCE01B0E0A0E0481759076A077B0767
:102A600090F00E9473086093902B7093912B809349
:102A7000922B9093932B8091962B882349F00E9460
:102A8000A5141092962BDF91CF911F910F9108956D
:102A90008EE89BE20E94B61481E08093962BF3CFE0
:102AA0000E94A5141092952BEECFCF92DF92EF9259
:102AB000FF920F931F93CF93DF93EC018B01672B52
:102AC000A9F18F81811103C0188681E08F830E9454
:102AD0007308CA80DB80EC80FD80AB01BC014C191F
:102AE0005D096E097F0930E020E040175107620759
:102AF000730768F00E9473086A837B838C839D83CD
:102B00008885882369F0CE010E94B1141886DF9170
:102B1000CF911F910F91FF90EF90DF90CF9008958C
:102B2000CE010E94B61481E08887F1CF0E94B114D3
:102B30001F82EDCFFC0112A211A213A214A2948154
:102B4000359680E0981719F011928F5FFBCF0895AA
:102B5000FC0101900020E9F73197AF01481B590BA8
:102B6000BC018EE49AE20C94020F0F931F93CF9353
:102B7000DF93CDB7DEB7A197CDBFDEBF482F50E0C2
:102B800070E060E019A2CE0181968A019B010F706E
:102B900011272227332724E0769567955795479587
:102BA0002A95D1F70A30ACF4005DFC010293CF0105
:102BB000411551056105710541F7EF2B61F00E9448
:102BC000A815A196CDBFDEBFDF91CF911F910F91C8
:102BD0000895095CEACF90E080E0F3CFAF92BF9216
:102BE000CF92DF92EF92FF920F931F93CF93DF93D9
:102BF0008091462B9091472BDC01ED91FC91019047
:102C0000F081E02D6091482B09958091462B9091A1
:102C1000472BDC01ED91FC910190F081E02D60915A
:102C2000492B09958091462B9091472BDC01ED9122
:102C3000FC910190F081E02D60914A2B09958091E3
:102C4000462B9091472BDC01ED91FC910190F08196
:102C5000E02D60914B2B09958091462B9091472B4D
:102C6000DC01ED91FC910190F081E02D60914C2B05
:102C700009958091462B9091472BDC01ED91FC91B9
:102C80000190F081E02D60914D2B09958091462BAC
:102C90009091472BDC01ED91FC910190F081E02DAA
:102CA00060914E2B09958091462B9091472BDC012A
:102CB000ED91FC910190F081E02D60914F2B0995F1
:102CC0008091462B9091472BDC01ED91FC91019076
:102CD000F081E02D6091502B09958091462B9091C9
:102CE000472BDC01ED91FC910190F081E02D60918A
:102CF000512B099580915C2B882309F462C08AE4EA
:102D00009DE90E94A815A090482BB090492BC09037
:102D10004A2BD0904B2BE0904C2BF0904D2B0091F8
:102D20004E2B10914F2BD091502BC091512B80E501
:102D30009DE90E94A81587E59DE90E94A8158A2DA6
:102D40000E94B5150E9471068B2D0E94B5150E9438
:102D500071068C2D0E94B5150E9471068D2D0E9462
:102D6000B5150E9471068E2D0E94B5150E94710640
:102D70008F2D0E94B5150E947106802F0E94B515F7
:102D80000E947106812F0E94B5150E9471068D2F39
:102D90000E94B5150E9471068C2F0E94B51587E51B
:102DA0009DE90E94A81587E59DE9DF91CF911F91CC
:102DB0000F91FF90EF90DF90CF90BF90AF900C9469
:102DC000A815DF91CF911F910F91FF90EF90DF90A9
:102DD000CF90BF90AF9008950F931F93CF93909192
:102DE0003D2B911135C0162FC82F0E947308609398
:102DF0003228709333288093342890933528C1115A
:102E000010C086E180934B2B10924C2B10924D2BCF
:102E100010924E2B0E94FB01CF911F910F910C94A9
:102E2000EE151123C9F088E080934B2B10924C2BA8
:102E300010924D2BC0934E2B0E94FB010E94EE1569
:102E40001092802B1092812B1092822B1092832B48
:102E5000CF911F910F910895EC2FF0E0EE0FFF1F1F
:102E6000E05EF3460081118183E080934B2B10924A
:102E70004C2B10924D2BC0934E2B0E94FB010E94B5
:102E8000EE150E9473086093702B7093712B8093E2
:102E9000722B9093732B30E020E00093802B1093E3
:102EA000812B2093822B3093832BD2CF0F931F93B0
:102EB000CF9380913028811124C080913D2B8823AD
:102EC00009F4BDC00E94C013882309F4B8C00E9451
:102ED000730860933228709333288093342890933A
:102EE000352887E180934B2B10924C2B10924D2B61
:102EF000C1E0C0934E2B0E94FB010E94EE15C093CF
:102F0000302880911F2B9091202B891761F0882306
:102F100051F00E94730860932C2870932D288093A1
:102F20002E2890932F2880911F2B9091202B89176A
:102F300061F181112AC00E94730800912C28109120
:102F40002D2820912E2830912F28601B710B820B89
:102F5000930B683E734081059105B8F40E94730895
:102F600060933228709333288093342890933528C7
:102F700081E080934B2B10924C2B10924D2B109292
:102F80004E2B0E94FB010E94EE158091152B909113
:102F9000162B891761F0882351F00E947308609303
:102FA00028287093292880932A2890932B28809191
:102FB000152B9091162B891761F181112AC00E945F
:102FC0007308009128281091292820912A283091EF
:102FD0002B28601B710B820B930B683E734081059D
:102FE0009105B8F40E9473086093322870933328D7
:102FF000809334289093352882E080934B2B109255
:103000004C2B10924D2B10924E2B0E94FB010E94D4
:10301000EE1580913D2B811112C080913F28E82F41
:10302000F0E0EE0FFF1FE858F34661E020813181A8
:10303000232B09F460E00E94EC1610923028CF9107
:103040001F910F9108958F929F92AF92BF92CF924E
:10305000DF92EF92FF92CF93DF930E947308C090AC
:10306000E02BD090E12BE090E22BF090E32BAB0132
:10307000BC014C195D096E097F0945315105610597
:10308000710508F45EC0D701C6014496A11DB11DAB
:103090008093E02B9093E12BA093E22BB093E32B52
:1030A000C090DD2BD12CF12CE12CC114D104E10412
:1030B000F10439F00E94C62BA70196010E941E2C34
:1030C0006B010E94C62BD12CCC0CDD1CE091DE2BB9
:1030D000F091DF2BEC0DFD1DC081D1813DEC832EE5
:1030E000912CA12CB12CA50194010E941E2C6E5C88
:1030F0007F4F8F4F9F4F68830E94C62BE091DE2B3E
:10310000F091DF2BEC0DFD1DC081D18122E330E079
:1031100040E050E00E941E2C69830E94C62B209143
:10312000DE2B3091DF2BC20ED31EF601C081D18180
:10313000A50194010E941E2C6E5C7F4F8F4F9F4F04
:103140006A83DF91CF91FF90EF90DF90CF90BF9097
:10315000AF909F908F9008958F929F92AF92BF9261
:10316000CF92DF92EF92FF920F931F93CF93DF9353
:1031700090913E28992309F462C68C3008F004C26D
:10318000E82FF0E0EA53F74E0C94A92C3A19C9192C
:103190001D1B571BB51BF01B261C281C911CED1C6E
:1031A000161D5C1D0E94120180E00E941602109202
:1031B000382C1092452C8091422C81508093462CC3
:1031C00086E89CE20E949A1510925E2C10925F2C69
:1031D0001092602C1092612C1092622C1092632C31
:1031E0001092C72B1092C82B1092C92B1092CA2B89
:1031F0001092CB2B1092CC2B89EA9BE20E94B61442
:1032000087E99BE20E94B61480EA9BE20E94B61412
:103210008EE89BE20E94B61485E89BE20E94B614F9
:1032200090E080E02091DD2B2817190618F19C0111
:10323000220F331FE091DE2BF091DF2BE20FF31F03
:103240000190F081E02D1082E091DE2BF091DF2BD8
:10325000E20FF31F0190F081E02D1182E091DE2B4F
:10326000F091DF2BE20FF31F0190F081E02D12822D
:103270000196D8CF80919E2B811105C010929F2B73
:1032800081E080939E2B0E9473080091992B1091EE
:103290009A2B20919B2B30919C2B601B710B820BE6
:1032A000930B683E734081059105B8F00E94730846
:1032B0006093992B70939A2B80939B2B90939C2BCC
:1032C00080919F2B8823B9F02AE54FEF6DEA87E9BB
:1032D0009BE20E94851410929F2BDF91CF911F914A
:1032E0000F91FF90EF90DF90CF90BF90AF909F90A5
:1032F0008F900C94D30D87E99BE20E94B61481E075
:1033000080939F2BEACF8EE89BE20E94B61487E958
:103310009BE20E94B61485E89BE20E94B61480EA04
:103320009BE20E94B6141092C72B1092C82B1092E9
:10333000C92B1092CA2B1092CB2B1092CC2BD1E020
:1033400064E670E089EA9BE20E9455156D2F88EBD8
:103350009BE00E940D0D80911328811107C0809180
:10336000422C8093122881E080931328DD23D9F02A
:103370008091422C809312281092452C1092382C68
:1033800090E070E060E0009731F0680F791F0197DE
:10339000FACFD0E0D5CF88EB9BE00E94812C6093E0
:1033A000472C7093482C8091382C8111A9C00E9421
:1033B000730800913E2C10913F2C2091402C3091AD
:1033C000412CAB01BC01401B510B620B730B809174
:1033D000472C9091482C092E000CAA0BBB0B4817C8
:1033E00059076A077B07D0F10E94730860933E2C4F
:1033F00070933F2C8093402C9093412C8091452CCE
:10340000082E000C990B2091422C2817190609F060
:103410000CF469C0C0E08091422C4091452C909101
:1034200012282C2F0C2E000C330B8217130661F080
:103430005CF0C4171CF060E0C91301C064E6C90168
:103440000E944302CF5FE7CF2FEF290F209312286E
:10345000241304C09093452C80931228DD2341F05F
:1034600080918A2C8093A72C1092AA2C10921B2852
:103470008091AA2C8111B6C00E9473080091862CFD
:103480001091872C2091882C3091892C601B710B16
:10349000820B930B623371058105910508F449C0D5
:1034A0000E9473086093862C7093872C8093882CDD
:1034B0009093892C20911B2890918A2C8091A72C85
:1034C00021116FC02FEF290FE22F022E000CFF0BEE
:1034D000EA57F34D31E027FD1EC02817D4F035839D
:1034E00021503197F8CF84E60E9416021092452CA5
:1034F0008091422C8093122881E08093382CAECFAB
:103500008CE390E08093472C9093482C0E94380ED7
:10351000A5CF1582E5CF87FD03C081508093A72CEE
:103520008091A72C87FF05C081E080931B28909392
:10353000A72C9FE4892E9CE2992E2AE0A22EB12C82
:103540003AE6C32E3CE2D32EF12CE12C04E61CE239
:1035500020E048E253E26EE57CE289E49CE20E94CE
:103560008D1047E5842E4CE2942E5EE6C52E5CE27B
:10357000D52E08E61CE220E048E253E262E67CE257
:1035800089E49CE20E948D10DF91CF911F910F91F1
:10359000FF90EF90DF90CF90BF90AF909F908F9073
:1035A00008959150E92F092E000CFF0BEA57F34DB7
:1035B00021E097FD08C0981724F0158291503197AB
:1035C000F8CF2583FBCF87FD03C081508093A72CC4
:1035D0008091A72C87FFADCF81E08093AA2C109219
:1035E000A72CA7CF0E947F08A4CF8EE89BE20E9461
:1035F000B61487E99BE20E94B61485E89BE20E941C
:10360000B61480EA9BE20E94B6141092C72B109267
:10361000C82B1092C92B1092CA2B1092CB2B109250
:10362000CC2B10925E2C10925F2C1092602C10927A
:10363000612C1092622C1092632C89EA9BE20E940A
:10364000B1141092B02B60E090E080E00E940D0D6C
:103650004CE350E060E090E080E00E94600D8091DB
:10366000472C9091482C0E94380EDF91CF911F91EA
:103670000F91FF90EF90DF90CF90BF90AF909F9011
:103680008F900C947F0885E89BE20E94B61480EA34
:103690009BE20E94B61410925E2C10925F2C109246
:1036A000602C1092612C1092622C1092632C0E945C
:1036B000A5141092952B0E949E1410929E2B89EABD
:1036C0009BE20E94B1141092B02B60E090E080E089
:1036D0000E94280D60E090E080E00E94950E0E941C
:1036E000DB0860E090E080E0DF91CF911F910F91C7
:1036F000FF90EF90DF90CF90BF90AF909F908F9012
:103700000C942612C1E085E89BE20E94B61480EA80
:103710009BE20E94B6148EE89BE20E94B6141092BF
:103720005E2C10925F2C1092602C1092612C1092E3
:10373000622C1092632C84E690E00E94BB1489EA0C
:103740009BE20E94B1141092B02B6C2F84EC99E094
:103750000E94950E6C2F84EC99E00E94280D0E9427
:103760007F086C2F84EC99E0BFCFC0E0E4CFC1E0CC
:1037700085E89BE20E94B61480EA9BE20E94B614A0
:103780008EE89BE20E94B61410925E2C10925F2C81
:103790001092602C1092612C1092622C1092632C6B
:1037A00084E690E00E94BB1489EA9BE20E94B11477
:1037B0001092B02B4CE350E06C2F84EC99E00E9407
:1037C000600D8091472C9091482C0E94380E6C2FF0
:1037D00084EC99E00E940D0D0E94DB080E94F72DF9
:1037E000C0E0DECF80EA9BE20E94B614C1E00E94F6
:1037F0009E1410929E2B85E89BE20E94AC141092BE
:103800008C2B0E94A5141092952B89EA9BE20E94B2
:10381000B1141092B02B8C2F0E94430D8C2F0E945C
:10382000880E0E9442096C2F80E29EE40E94BB1128
:10383000DF91CF911F910F91FF90EF90DF90CF908C
:10384000BF90AF909F908F900C942318C0E0CFCF83
:103850000E94730800913A2810913B2820913C283F
:1038600030913D28601B710B820B930B60317742C6
:103870008105910580F18091A72B811105C01092DF
:10388000A82B81E08093A72B0E9473080091A22BA4
:103890001091A32B2091A42B3091A52B601B710BB1
:1038A000820B930B643F714081059105A0F00E944B
:1038B00073086093A22B7093A32B8093A42B9093F7
:1038C000A52B8091A82B882321F180EA9BE20E94FE
:1038D000AC141092A82B0E949E1410929E2B85E887
:1038E0009BE20E94AC1410928C2B0E94A5141092A3
:1038F000952B89EA9BE20E94B1141092B02B80E0D4
:103900000E94430D80E00E94880E0E94420960E000
:103910008BCF80EA9BE20E94B61481E08093A82BB3
:10392000DACF64E670E080EA9BE20E9455150E94BF
:103930009E1410929E2B85E89BE20E94AC1410927C
:103940008C2B0E94A5141092952B89EA9BE20E9471
:10395000B1141092B02B80E00E94430D80E00E94D1
:10396000880E0E94420960E088E99AE35FCF80EA0E
:103970009BE20E94B61485E89BE20E94B614C1E067
:103980000E949E1410929E2B84EF91E00E940815D5
:1039900089EA9BE20E94B1141092B02B0E949F0E04
:1039A0006C2F80ED97E00E94950E6C2F80ED97E0D4
:1039B0000E94280D0E94DB086C2F80ED97E0DF91BC
:1039C000CF911F910F91FF90EF90DF90CF90BF901C
:1039D000AF909F908F900C942311C0E0D1CF85E8D9
:1039E0009BE20E94B614C1E084EF91E00E940815AA
:1039F00064E670E080EA9BE20E94551589EA9BE24A
:103A00000E94B1141092B02B0E949F0E6C2F88E878
:103A100093E10E94950E6C2F88E893E10E94280D97
:103A20000E94DB086C2F88E893E1C9CFC0E0DCCFAF
:103A300087E99BE20E94B61480EA9BE20E94B614DA
:103A400085E89BE20E94B6148EE89BE20E94B614C1
:103A50001092C72B1092C82B1092C92B1092CA2B10
:103A60001092CB2B1092CC2BC1E064E670E089EA77
:103A70009BE20E94551580911D28811107C08091FD
:103A8000422C80931C2881E080931D28CC23F1F0E8
:103A90008091422C80931C289FEF980F9093452C87
:103AA00091E09093382C90E070E060E0009731F066
:103AB000680F791F0197FACFC0E0D7CF88EB9BE062
:103AC0000E94812C6093472C7093482C8091382C55
:103AD000882309F4B8C00E94730800913E2C10910D
:103AE0003F2C2091402C3091412CAB01BC01401B5C
:103AF000510B620B730B8091472C9091482C092E2F
:103B0000000CAA0BBB0B481759076A077B07C8F1C3
:103B10000E94730860933E2C70933F2C8093402C3E
:103B20009093412C8091452C87FD83C0D0E020915B
:103B3000422C30E090911C284D2F0D2E000C550B7F
:103B4000421753076CF48091452CD8171CF060E0A5
:103B50009D1301C064E6CA010E944302DF5FE7CF04
:103B600081E0890F80931C28082E000C990B821786
:103B700093073CF08091452C81508093452C809395
:103B80001C2809E1C02ED12C85E0E82EF12C0AE09A
:103B900010E030E020E04EE150E06C2F88EB9BE03D
:103BA0000E94C509CC2339F01092A72C81E08093A4
:103BB000AA2C109225288091AA2C882309F4D6C01B
:103BC0000E9473080091862C1091872C2091882CDC
:103BD0003091892C601B710B820B930B6233710542
:103BE0008105910508F45CC00E9473086093862CDF
:103BF0007093872C8093882C9093892C9091252802
:103C000080918A2C2091A72C992301F190E030E03B
:103C100041E0E32F032E000CFF0BE817F9070CF02F
:103C20008FC0EA57F34D32170CF088C015823F5F02
:103C3000F0CF80E00E9416021092452C10921C28B2
:103C40001092382C9ECF0E94D30D9BCF90E030E095
:103C500041E0E32F032E000CFF0BE817F9074CF4AB
:103C6000EA57F34D32171CF445833F5FF2CF1582BC
:103C7000FCCF422F022E000C550B481759071CF49D
:103C80002F5F2093A72C2091A72C022E000C330B22
:103C9000281739072CF081E0809325281092A72C53
:103CA000CC23E1F01092272881E0809302288093B2
:103CB0000128109226288093002880915E2C9091F4
:103CC0005F2C992780935E2C90935F2C1092602C30
:103CD0001092612C1092622C1092632C80912728F4
:103CE000811149C00E947308665F7F4F8F4F9F4FBD
:103CF000613B74408105910508F446CCAFE48A2EFF
:103D0000ACE29A2EBAE0AB2EB12CDAE6CD2EDCE294
:103D1000DD2EEE24EA94F12C04E61CE22C2F48EB75
:103D20005BE06EE57CE289E49CE20E948D108823D2
:103D300009F42ACC81E08093272826CC458377CFCD
:103D4000422F022E000C550B481759071CF42F5F09
:103D50002093A72C2091A72C022E000C330B2817A0
:103D600039070CF49DCF1092AA2C98CF86E89CE2DC
:103D70000E949A1595CFC09102287FE4872E7CE29D
:103D8000972EEAE0AE2EB12CFAE6CF2EFCE2DF2E23
:103D9000F12CE12C04E61CE22C2F40E757E16EE504
:103DA0007CE289E49CE20E948D10C11110920228ED
:103DB00080912628811123C0C091012837E5832EE8
:103DC0003CE2932E43E0A42EB12C5EE6C52E5CE2CD
:103DD000D52EEE24EA94F12C08E61CE22C2F40E1CB
:103DE0005EE062E67CE289E49CE20E948D108093B2
:103DF0002628CC2309F4C8CB10920128C5CBC0914A
:103E0000002887E5882E8CE2982E95E0A92EB12C0B
:103E10002EE6C22E2CE2D22EF12CE12C08E61CE27A
:103E20002C2F48EB5BE062E67CE289E49CE20E9496
:103E30008D10CC2309F4A8CB10920028A5CB8C3090
:103E400008F0A2CBE82FF0E0E85DF04E0C94A92C2E
:103E5000D2188319F51A431B821BB71BF21B281CAF
:103E6000911CB71CEF1C181D1F920F920FB60F92DA
:103E700011242F933F934F935F936F937F938F936F
:103E80009F93AF93BF93CF93EF93FF93C091AB08F2
:103E9000C2FF0AC010926C2910926B2910926A29F5
:103EA00084E00E94EF0214C0C6FF2FC080916929F0
:103EB000813051F480916C29E0916729F091682953
:103EC00090E0099510926929C0FF14C00E94FF027A
:103ED000FF91EF91CF91BF91AF919F918F917F9182
:103EE0006F915F914F913F912F910F900FBE0F9067
:103EF0001F90189580E48093AB0881E00E94EF0248
:103F00008091AB0885FFE4CFE1CFC7FF5CC0C3FF62
:103F100008C010926C2910926B2910926A2983E0D4
:103F2000C0CF8091A90880668093A9088091AB08D2
:103F300081FF2CC080916B29882349F08091AB08C8
:103F400084FF05C082E08093AA0881E0AACF909107
:103F50006B2980916A299817A8F4E0916B298091C8
:103F6000622990916329E80FF92FF11D80818093D8
:103F7000AD0880916B298F5F80936B2983E08093DC
:103F8000AA08A6CF82E08093AA088BCF90916C29D3
:103F900080916629981790F48091AD08E0916C2982
:103FA0002091642930916529E20FF32FF11D808360
:103FB00080916C298F5F80936C29E0CF86E080939D
:103FC000AA0882E06ECF85E06CCF1F920F920FB6E9
:103FD0000F9211242F933F938F939F93EF93FF930F
:103FE0008091A508982F9C70E1F08091A50894E03D
:103FF00082FF93E0909377298093A50881E090E079
:1040000080936D2990936E2910927829FF91EF91FA
:104010009F918F913F912F910F900FBE0F901F9006
:10402000189586FF4EC02091742990917329809134
:10403000A50884FF15C080917029882379F083E05A
:104040008093A40885E0809377291092782981E0F5
:1040500090E080936D2990936E29D8CF81E0F0CFC6
:1040600080917229821790F4E091722980917529CC
:1040700090917629E80FF92FF11D80818093A8088F
:10408000809172298F5F80937229C0CF80917129AE
:10409000891760F484E090E080936D2990936E29F5
:1040A00080916F2981608093A708B0CF809170299B
:1040B000882329F083E08093A40881E0C4CF81E0C5
:1040C000FACF87FF40C0909171298091732998178A
:1040D000D8F48091A808E09171292091602930914D
:1040E0006129E20FF32FF11D8083809171298F5F89
:1040F0008093712990917329809171298917D8F43F
:1041000082E08093A40882CF80917029882389F06F
:1041100087E08093A40882E0809377291092782921
:1041200081E090E080936D2990936E29109273291D
:104130006DCF85E0EECF80917029882311F087E064
:10414000BACF85E0B8CF86E07ECF1F920F920FB630
:104150000F9211242F933F934F935F936F937F930D
:104160008F939F93AF93BF934091462850914728D8
:104170006091482870914928809144289091452861
:104180002091422830914328420F531F611D711D19
:104190002091402830914128820F931F883E23E0D0
:1041A000920730F0885E93404F5F5F4F6F4F7F4FB5
:1041B000809344289093452840934628509347285D
:1041C000609348287093492880914E2890914F28F9
:1041D000A0915028B09151280196A11DB11D809346
:1041E0004E2890934F28A0935028B093512881E0F7
:1041F0008093B60ABF91AF919F918F917F916F91FC
:104200005F914F913F912F910F900FBE0F901F9094
:1042100018951F920F920FB60F9211242F933F9370
:104220004F935F936F937F938F939F93AF93BF93BE
:10423000EF93FF9383EB99E20E94DB05FF91EF91EF
:10424000BF91AF919F918F917F916F915F914F91AE
:104250003F912F910F900FBE0F901F9018951F92B6
:104260000F920FB60F9211242F933F934F935F93AA
:104270006F937F938F939F93AF93BF93EF93FF932E
:1042800083EB99E20E94320FFF91EF91BF91AF91C2
:104290009F918F917F916F915F914F913F912F915E
:1042A0000F900FBE0F901F9018951F920F920FB690
:1042B0000F9211242F933F934F935F936F937F93AC
:1042C0008F939F93AF93BF93EF93FF938EE49AE204
:1042D0000E94DB05FF91EF91BF91AF919F918F916C
:1042E0007F916F915F914F913F912F910F900FBEF2
:1042F0000F901F9018951F920F920FB60F921124D6
:104300002F933F934F935F936F937F938F939F93DD
:10431000AF93BF93EF93FF938EE49AE20E94320F24
:10432000FF91EF91BF91AF919F918F917F916F918D
:104330005F914F913F912F910F900FBE0F901F9063
:104340001895CF92DF92EF92FF920F931F93CF9326
:10435000DF93EC016B018A01198218861F86188A87
:10436000198A1A8A81E08E878B871C8692E09D8746
:1043700088837B01EE0CFF1CE60EF71EEC82FD82AB
:10438000C7010E94D22C89879A87009791F1A701D3
:1043900070E060E00E94FC2DCA82DB820E831F83E6
:1043A0008981882351F061E070E0802F0E94CE0661
:1043B00070E060E0802F0E945907F801E252F34656
:1043C00080818630D8F420E2829FC00111249C5F56
:1043D00004968B8B9C8BF801EC53F34680818D8B7C
:1043E000DF91CF911F910F91FF90EF90DF90CF90D1
:1043F00008951C821D821A821B82D0CF90E080E03B
:10440000E7CF0F931F93CF93DF931092A9291092B8
:10441000AA2988EE93E0A0E0B0E08093AB299093C6
:10442000AC29A093AD29B093AE292CEF3CE92093A1
:10443000A7293093A8291092B5291092B629809304
:10444000B7299093B829A093B929B093BA2924E247
:104450003DE92093B3293093B42940E258E04093DA
:10446000BF295093C0291092C12941E04093C2292D
:1044700044E04093C3291092C5291092C629109296
:10448000C7291092C8294BE14093C9291092CA2923
:104490001092CB2910924C2A10924D2A1092502A39
:1044A0001092512A8093522A9093532AA093542A0F
:1044B000B093552A20934E2A30934F2A80E698E0F5
:1044C00080935A2A90935B2A88E180935C2A89E141
:1044D00080935D2A80E480935E2A1092602A109275
:1044E000612A1092622A1092632A86E28093642ADB
:1044F0001092652A1092662A1092E72A1092E82AF2
:104500008CE180938A2C8093AB2C1092AC2C83E1AD
:104510008093AD2C82E18093AE2C80E78093AF2C0A
:1045200042E050E06DE270E080E79CE20E94A12151
:1045300080E79CE28093492C90934A2C10925B2C4C
:1045400026E020935C2C10924B2C10924C2C109255
:104550004D2C10924E2C10924F2C1092502C1092E9
:10456000512C1092522C1092532C1092542C1092C9
:10457000552C1092562C1092572C1092582C1092A9
:10458000592C10925A2C27E020935D2C10925E2C0F
:1045900010925F2C1092602C1092612C1092622C61
:1045A0001092632C8093392C90933A2C10923B2CD0
:1045B00083E280933C2C8CE280933D2C10923E2C25
:1045C00010923F2C1092402C1092412C8AE0809344
:1045D000422C84E190E00E94D22C8093432C909353
:1045E000442CEC018C010C5E1F4FC017D10739F031
:1045F00083E090E00E94D22C89939993F6CF109299
:10460000382C1092452C89E08093462C80E79CE260
:104610008093FA2B9093FB2B1092FC2B87E08093D6
:10462000012C8DE08093022C8EE08093032C84E19A
:104630008093042C85E18093052C8BE18093062CDC
:104640008CE18093072C92E29093082C8093092CA4
:1046500088E390E00E94D22C80930A2C90930B2C3C
:10466000EC011DE1115039F083E090E00E94D22C62
:1046700089939993F7CF1092FD2B1092FE2B1092F5
:10468000FF2B1092002C8EE190E080930C2C9093E5
:104690000D2C10920E2C10920F2C8AE090E080933B
:1046A000102C9093112C85E090E08093122C909325
:1046B000132C89E190E08093142C9093152C109288
:1046C000182C1092192C10921A2C10921B2C10924C
:1046D0001C2C10921D2C10921E2C10921F2C81E06D
:1046E0008093202C1092212C1092222C1092232C9B
:1046F0001092242C1092252C1092262C1092272CEC
:104700001092282C1092292C10922A2C10922B2CCB
:1047100010922C2C10922D2C10922E2C10922F2CAB
:104720001092302C1092312C1092322C1092332C8B
:104730001092342C1092352C1092362C1092372C6B
:1047400043E050E06DE070E084EE9BE20E94A12126
:1047500084EE9BE28093D92B9093DA2B86E08093B2
:10476000DB2B8CE08093DC2B87E08093DD2B8EE0CD
:1047700090E00E94D22C8093DE2B9093DF2BEC01F3
:104780008C01025F1F4FC017D10739F083E090E022
:104790000E94D22C89939993F6CF1092E02B10921D
:1047A000E12B1092E22B1092E32B84EE9BE280939C
:1047B000B22B9093B32B21E02093C42B2093C52BD5
:1047C0001092B42B1092B52B1092B62B1092B72BDF
:1047D0001092B82B1092B92B1092BA2B1092BB2BBF
:1047E0001092BC2B1092BD2B1092BE2B1092BF2B9F
:1047F0001092C02B1092C12B1092C22B1092C32B7F
:104800002093C62B1092C72B1092C82B1092C92B45
:104810001092CA2B1092CB2B1092CC2B8093A92BE9
:104820009093AA2B1092AF2B1092AB2B1092AC2B23
:104830001092AD2B1092AE2B1092B02B1092B12B88
:104840008093A02B9093A12B32E03093A62B109253
:10485000A22B1092A32B1092A42B1092A52B109296
:10486000A72B1092A82B8093972B9093982B33E033
:1048700030939D2B1092992B10929A2B10929B2B78
:1048800010929C2B10929E2B10929F2B80938E2B1C
:1048900090938F2B35E03093942B1092902B1092A5
:1048A000912B1092922B1092932B1092952B109289
:1048B000962B8093852B9093862B84E080938B2B73
:1048C0001092872B1092882B1092892B10928A2B92
:1048D00010928C2B10928D2B10925D2B10925E2BD0
:1048E00010925F2B1092602B1092612B1092622B12
:1048F0001092632B1092642B1092652B1092662BF2
:104900001092672B1092682B1092692B10926E2BCD
:1049100010926F2B99E19093782B96E99093792BD5
:104920009FE090937A2B10927C2B20937D2B1092FA
:104930007E2B10927F2B1092702B1092712B109265
:10494000722B1092732B1092742B1092752B109265
:10495000762B1092772B90937B2B1092452B1092F5
:10496000802B1092812B1092822B1092832B98E037
:1049700090933B2B10923C2B10923D2B10923E2B90
:1049800010923F2B1092402B1092412B1092422BF1
:104990001092432B1092442B97E09093312B10925E
:1049A000322B1092332B1092342B1092352B109205
:1049B000362B1092372B1092382B1092392B1092E5
:1049C0003A2B96E09093272B1092282B1092292BAC
:1049D00010922A2B10922B2B10922C2B10922D2BF5
:1049E00010922E2B10922F2B1092302B80931D2B78
:1049F00010921E2B10921F2B1092202B1092212B05
:104A00001092222B1092232B1092242B1092252BE4
:104A10001092262B3093132B1092142B1092152BDF
:104A20001092162B1092172B1092182B1092192BF4
:104A300010921A2B10921B2B10921C2B1092FE2AF4
:104A40001092FF2A86E49DE980930F2B9093102B00
:104A500082E49DE98093112B9093122B1092012BED
:104A60001092022B1092032B1092042B1092092B00
:104A700010920A2B10920B2B10920C2B10920D2BD4
:104A800010920E2B1092E92A1092EA2A8EE39DE9E9
:104A90008093FA2A9093FB2A8AE39DE98093FC2A6B
:104AA0009093FD2A1092EC2A1092ED2A1092EE2A91
:104AB0001092EF2A1092F42A1092F52A1092F62AF8
:104AC0001092F72A1092F82A1092F92ADF91CF91CA
:104AD0001F910F91089588ED90E084BF909361003D
:104AE00080E094E2A4EFB0E0809303289093042840
:104AF000A0930528B09306288091020686608093D3
:104B00000206809100068160809300068091020673
:104B10008F7C809302068091A0008F788093A00004
:104B2000809102068061809302061092E20581E086
:104B30008093E40583E08093010A8FEF90E08093F7
:104B4000260A9093270A80E890E08093380A909391
:104B5000390A80933A0A90933B0A80933C0A9093D7
:104B60003D0A8BE08093000A8091E5058160809387
:104B7000E5058091E50582608093E505E0E8FAE0CF
:104B800027E0DFEF90E885E02183D4879587808355
:104B90007096E03C3AE0F307B9F780E094E0809348
:104BA0004C2890934D2880914C2890914D282FEFC0
:104BB00030E0B9010E94812C60934A2870934B2801
:104BC00080914C2890914D28E8EEF3E0BF010E94BF
:104BD000812C609342287093432880914C289091B7
:104BE0004D28BF010E94812C80934028909341283A
:104BF0002093BC0A3093BD0A8091B50A81608093EE
:104C0000B50A84E08093B00A8091B00A81608093F5
:104C1000B00A789440E855E260E070E083EB99E2F6
:104C20000E947C1482E390E0A0E0B0E080936A2BC5
:104C300090936B2BA0936C2BB0936D2B10925D2BEC
:104C40008093662B9093672BA093682BB093692B6E
:104C50000E9473086093622B7093632B8093642B84
:104C60009093652B83EB99E28093462B9093472B8F
:104C700010925C2B9EE79093482BD093492BC6E073
:104C8000C0934A2B8FEE8093512B9093522BD0934D
:104C9000532BC093542B80935B2B6091792B70E046
:104CA00090E080E00E94430880917A2B8F3160F47D
:104CB000C0934B2B10924C2B10924D2B80934E2B6C
:104CC0000E94FB010E94EE156091792B70E090E04C
:104CD00080E00E94430889E080934B2B10924C2B7C
:104CE00010924D2B82E080934E2B0E94FB010E947C
:104CF000EE156091792B70E090E080E00E9443080F
:104D000087E080934B2B10924C2B10924D2B81E01F
:104D100080934E2B0E94FB010E94EE156091792B2F
:104D200070E090E080E00E94430886E180934B2B86
:104D300010924C2B10924D2B10924E2B0E94FB0187
:104D40000E94EE156091792B70E090E080E00E9467
:104D500043088AE180934B2B10924C2B10924D2BE1
:104D600010924E2B0E94FB010E94EE156091792B50
:104D700070E090E080E00E94430889E180934B2B33
:104D800010924C2B10924D2B10924E2B0E94FB0137
:104D90000E94EE156091792B70E090E080E00E9417
:104DA000430810927E2B70E060E080E00E9498063D
:104DB00010927F2B0E9473086093322870933328DF
:104DC000809334289093352880E79CE20E947810E5
:104DD00080E79CE20E9462024091742C5091752CF5
:104DE00070E060E08091792C90917A2C0E94FC2DEB
:104DF00080E79CE20E94A90F0E94120180E00E94BD
:104E000016021092382C1092452C8091422C815021
:104E10008093462C10925E2C10925F2C1092602C86
:104E20001092612C1092622C1092632C84EE9BE203
:104E30000E94781084EE9BE20E9462024091E82B6F
:104E40005091E92B70E060E08091ED2B9091EE2B7A
:104E50000E94FC2D84EE9BE20E94A90F1092C72BAA
:104E60001092C82B1092C92B1092CA2B1092CB2BE8
:104E70001092CC2B89EA9BE20E94B61487E99BE250
:104E80000E94B61480EA9BE20E94B6148EE89BE270
:104E90000E94B61485E89BE20E94B614E8E3FCE9A0
:104EA000A6E8BCE28081D0968C93D0978181D19680
:104EB0008C93D197329612968CE9E037F80791F7E8
:104EC0008091AF2C1092B32C1092B42C1092B52C70
:104ED0008093B22C62E070E088E090E00E94B62CF3
:104EE0008093B02C9093B12C87EA99E20E94D3066C
:104EF0006091B22C87EA99E20E94560481E290E028
:104F00000E94250487EA99E20E942F046091B22C46
:104F100087EA99E20E94560481E890E00E94250405
:104F200087EA99E20E942F046091B22C87EA99E205
:104F30000E9456048FEE90E00E94250487EA99E2D1
:104F40000E942F040E945D046091B22C87EA99E2CE
:104F50000E9456048FEE90E00E94250487EA99E2B1
:104F60000E942F04E091B02CF091B12CCF0140961B
:104F7000119211928E179F07D9F786E89CE20E9442
:104F80009A1586E89CE20E949A150E94B6048BE36B
:104F90009BE20E940F1381E39BE20E940F1387E2C2
:104FA0009BE20E940F138DE19BE20E940F1383E1AD
:104FB0009BE20E940F138EEF9AE20E94AC1389EEDF
:104FC0009AE20E94AC13EEED8E2EE3E09E2EA12C11
:104FD000B12C11E0F0E0EF2EF0E0FF2EA6E0DA2E8B
:104FE000D1E00E94B604C0E08C2F0C2E000C990B6F
:104FF0002091092C2817190611F10CF12091FC2B96
:105000006091012C6C0F222319F06091082C6C1B0D
:10501000880F991F20910A2C30910B2C820F931F1F
:10502000DC01ED91FC9170E0028121814081809151
:10503000FA2B9091FB2B0E94590FCF5FD5CFC0E088
:105040008C2F0C2E000C990B2091422C281719063E
:1050500011F10CF120913B2C60913C2C6C0F222320
:1050600019F060913D2C6C1B880F991F2091432CE7
:105070003091442C820F931FDC01ED91FC9170E084
:105080000281218140818091392C90913A2C0E949B
:10509000590FCF5FD5CF82EB9BE20E94A91289E422
:1050A0009CE20E94A912C0E08091DD2BC817F0F4A9
:1050B0008C2F90E09C01220F331FE091DE2BF091AA
:1050C000DF2BE20FF31F0190F081E02D6091DB2BCD
:1050D000680F792F711D0281218140818091D92B28
:1050E0009091DA2B0E94590FCF5FDECF84EE9BE2C6
:1050F0000E94A90F80E79CE20E94A90F8BE39BE22C
:105100000E94C91281E39BE20E94C91287E29BE2DE
:105110000E94C9128DE19BE20E94C91283E19BE2C9
:105120000E94C9128EEF9AE20E945F1389EE9AE202
:105130000E945F1380917F2B882309F469C0C0917E
:105140007A2B0E9473084090362850903728609040
:1051500038287090392864197509860997096A3FBB
:1051600071058105910508F43FC00E9473086093A2
:105170003628709337288093382890933928809167
:105180007F2B882389F180917E2BE82FF0E0E05976
:10519000F3468E3008F053C080812FEF30E08F301F
:1051A00088F4809306061093080680910B0680FF12
:1051B000FCCF9FB7F89480911006209111069FBFF5
:1051C000322F282FA091782B032E000C440B550B67
:1051D0002A50310941095109B0E00E943D2CA50136
:1051E00094010E941E2CC22F80917A2B8C1781F083
:1051F000C0937A2BCF3160F4D0924B2B10924C2B72
:1052000010924D2BC0934E2B0E94FB010E94EE1575
:10521000E0913F28EC30C8F4F0E0ED5EF64DC0912F
:105220003E280C94A92C2129472964298029A829E2
:10523000CA29E6291E2A6B2AB32AC72AE02A3E97E2
:10524000ABCFCC2349F0C130A1F0E114F10409F453
:10525000C8CE0E940000C5CE60E080E00E94EC163F
:1052600080913F280E94AC1889EE9AE20E941513A3
:10527000E0C080E00E94DB1380E00E94AC180E9436
:10528000561761E08091332B0E940614DECFCC23A9
:10529000C1F0C130D1F680E00E94DB1381E00E94B2
:1052A000AC180E9456178091332B6BE08C270E941C
:1052B000061462E08111C9CF80913F280E94161424
:1052C000C4CF60E081E0CACFCC23B9F0C13009F08F
:1052D000BCCF81E00E94DB1382E00E94AC180E94E8
:1052E00056178091332B6BE08C270E940614811196
:1052F000ACCF64E08091292BC7CF61E082E0AECFD4
:10530000CC2319F1C13009F0A0CF81E00E94DB135A
:1053100083E00E94AC180E9456178091332B6BE0FB
:105320008C270E940614811190CF8091292B65E073
:105330008C270E940614811188CF80911F2B811128
:1053400002C08091152B66E09FCF61E083E086CF9D
:10535000CC23E9F0C13009F078CF80E00E94DB1364
:1053600084E00E94AC180E9456178091332B6BE0AA
:105370008C270E940614811168CF8091292B65E04B
:105380008C270E94061463E081115FCF95CF60E007
:1053900084E064CFCC23B9F0C13009F056CF80E06F
:1053A0000E94DB1385E00E94AC180E945617809182
:1053B000332B6BE08C270E940614811146CF64E0EA
:1053C0008091292B74CF60E085E048CFCC2329F170
:1053D000C13009F03ACF80E00E94DB1386E00E94E2
:1053E000AC1889EE9AE20E942D130E945617809104
:1053F000332B6BE08C270E940614811126CF9091ED
:105400001F2B911103C08091152B8C2769E00E94FE
:10541000061467E0811119CF4FCF60E086E00E944B
:10542000EC1680913F280E94AC1889EE9AE20E9407
:105430002D138EEF9AE20E94151388C0CC2309F435
:1054400047C0C13009F001CF81E00E94DB1387E043
:105450000E94AC1889EE9AE20E942D130E94561702
:105460008091332B6BE08C270E9406148111EDCEC6
:1054700090911F2B911103C08091152B8C2769E00F
:105480000E9406148111E1CE80911F2B8111809121
:10549000152B68E00E9406148111D7CE0E94730874
:1054A00040903A2850903B2860903C2870903D28CE
:1054B000641975098609970960347C49810591054D
:1054C00008F4C3CE88E080933F2810923E28BDCEDA
:1054D00061E087E0A4CFCC2349F1C13009F0B5CE1B
:1054E00080E00E94DB1388E00E94AC1889EE9AE20B
:1054F0000E942D138EEF9AE20E942D130E945617E0
:105500008091332B6BE08C270E94061481119DCE75
:1055100090911F2B911103C08091152B8C276AE06D
:105520000E9406146AE0811190CEC6CE60E088E049
:105530000E94EC1680913F280E94AC1889EE9AE2F6
:105540000E942D138EEF9AE20E942D130E94730881
:1055500060933A2870933B2880933C2890933D2891
:10556000D0933E2872CECC2379F0C13009F06DCEB5
:1055700080E00E94DB1389E00E94AC180E9456175D
:105580008091332B6BE0FCCE60E089E067CECC23CA
:1055900071F0C13009F059CE80E00E94DB138AE03F
:1055A0000E94AC188EEF9AE20E942D13E7CF60E0C4
:1055B0008AE00E94EC1680913F280E94AC18C2CF6E
:1055C000CC23A1F0C13009F040CE80E00E94DB1373
:1055D0008BE00E94AC180E94561761E08091332B3B
:1055E0000E940614811131CE60E066CE60E08BE04F
:1055F00035CECF93DF93D0E0C0E08091DE2B909149
:10560000DF2B2091DD2B2C171D0679F074F09E0105
:10561000220F331F820F931FFC018081918100971D
:1056200011F00E946E2D2196E8CF009711F00E9494
:105630006E2D8091ED2B9091EE2B0E946E2D80911E
:10564000EA2B9091EB2B97FD04C070E060E00E9484
:10565000CE06D0E0C0E080910A2C90910B2C2091D6
:10566000092C2C171D0679F074F09E01220F331FB0
:10567000820F931FFC0180819181009711F00E949D
:105680006E2D2196E8CF009711F00E946E2DD0E08C
:10569000C0E08091432C9091442C2091422C2C17F7
:1056A0001D0679F074F09E01220F331F820F931FA5
:1056B000FC0180819181009711F00E946E2D21964E
:1056C000E8CF009711F00E946E2D8091792C909177
:1056D0007A2C0E946E2D8091762C9091772C97FDDC
:1056E00006C070E060E0DF91CF910C94CE06DF91B0
:1056F000CF9108958F929F92AF92BF92CF92DF92F7
:10570000EF92FF92CF93DF93EC01688179818A81D8
:105710009B81611571058105910521F464E279EDA4
:105720008BE597E02DE133EF41E050E00E941E2C25
:1057300049015A019B01AC01A7EAB1E40E943D2C4A
:105740006B017C01ACEEB4EFA50194010E944B2CDF
:10575000C60ED71EE81EF91EF7FE06C081E0C81A65
:10576000D108E10880E8F80AC882D982EA82FB827F
:10577000C701B6019F77DF91CF91FF90EF90DF9047
:10578000CF90BF90AF909F908F9008958F929F92EF
:10579000AF92BF92CF92DF92EF92FF926091082872
:1057A0007091092880910A2890910B286115710544
:1057B0008105910521F464E279ED8BE597E02DE117
:1057C00033EF41E050E00E941E2C49015A019B0139
:1057D000AC01A7EAB1E40E943D2C6B017C01ACEE68
:1057E000B4EFA50194010E944B2CC60ED71EE81EF3
:1057F000F91EF7FE06C081E0C81AD108E10880E86A
:10580000F80AC0920828D0920928E0920A28F0925B
:105810000B28C701B6019F77FF90EF90DF90CF90E4
:10582000BF90AF909F908F900895609308287093D9
:10583000092880930A2890930B280895052E97FB3A
:105840001EF400940E94352C57FD07D00E94502C66
:1058500007FC03D04EF40C94352C509540953095B0
:1058600021953F4F4F4F5F4F0895909580957095CC
:1058700061957F4F8F4F9F4F08950E94722CA59F77
:10588000900DB49F900DA49F800D911D112408953B
:10589000B7FF0C943D2C0E943D2C821B930B089566
:1058A000A1E21A2EAA1BBB1BFD010DC0AA1FBB1F24
:1058B000EE1FFF1FA217B307E407F50720F0A21B96
:1058C000B30BE40BF50B661F771F881F991F1A9403
:1058D00069F760957095809590959B01AC01BD012D
:1058E000CF010895A29FB001B39FC001A39F700D87
:1058F000811D1124911DB29F700D811D1124911DD8
:105900000895AA1BBB1B51E107C0AA1FBB1FA61706
:10591000B70710F0A61BB70B881F991F5A95A9F758
:1059200080959095BC01CD01089597FB072E16F444
:10593000009407D077FD09D00E94812C07FC05D088
:105940003EF4909581959F4F0895709561957F4F96
:105950000895EE0FFF1F0590F491E02D09940E9429
:10596000722CB7FF0895821B930B08950F931F931A
:10597000CF93DF93869F8001879F100D969F100D18
:105980001124C8010E94D22CEC01009729F0A80133
:1059900070E060E00E94FC2DCE01DF91CF911F915D
:1059A0000F9108950F931F93CF93DF93823091054A
:1059B00010F482E090E0E091F02CF091F12C30E0D6
:1059C00020E0B0E0A0E0309799F42115310509F40A
:1059D0004AC0281B390B24303105D8F58A819B81B8
:1059E0006115710589F1FB0182839383FE0111C06A
:1059F000408151810281138148175907E0F048170F
:105A0000590799F4109761F012960C931297139618
:105A10001C933296CF01DF91CF911F910F91089582
:105A20000093F02C1093F12CF4CF2115310551F097
:105A30004217530738F0A901DB019A01BD01DF01CC
:105A4000F801C1CFEF01F9CF8093F02C9093F12CA6
:105A5000CDCFFE01E20FF31F8193919322503109C4
:105A600028833983D7CF2091EE2C3091EF2C232B34
:105A700041F420910E2830910F282093EE2C309382
:105A8000EF2C20910C2830910D282115310541F47F
:105A90002DB73EB74091102850911128241B350B8B
:105AA000E091EE2CF091EF2CE217F307A0F42E1BFF
:105AB0003F0B2817390778F0AC014E5F5F4F241772
:105AC000350748F04E0F5F1F4093EE2C5093EF2C9C
:105AD000819391939FCFF0E0E0E09CCFCF93DF9351
