:100000000C94D2000C94FA000C94FA000C94FA00B0
:100010000C94FA000C94FA000C94FA000C94FA0078
:100020000C94FA000C94FA000C94FA000C94FA0068
:100030000C94FA000C94FA000C94811F0C9432205A
:100040000C94FA000C94FA000C94FA000C94FA0048
:100050000C94FA000C94FA000C94FA000C94FA0038
:100060000C94FA000C94FA000C947C210C94562108
:100070000C94FA000C94FA000C94FA000C94FA0018
:100080000C94FA000C94FA000C94FA000C94FA0008
:100090000C94F2200C94C8210C94A2210C94FA0028
:1000A0000000000000000000000000000000000050
:1000B0000000000000000000010101010101010138
:1000C0000101010102020202020202020303030310
:1000D00003030404040405050505050606060607D2
:1000E00007070808080909090A0A0A0B0B0B0C0C78
:1000F0000D0D0D0E0E0F0F101011111212131314FF
:10010000141515161617181819191A1B1B1C1D1D66
:100110001E1F1F2021222223242526262728292AA4
:100120002A2B2C2D2E2F30313233343536373839B7
:100130003A3B3C3D3E3F4041424445464748494B9F
:100140004C4D4E50515254555658595A5C5D5E6054
:100150006163646667696A6C6D6F707273757778D6
:100160007A7C7D7F8182848688898B8D8F91929421
:1001700096989A9C9EA0A2A4A6A8AAACAEB0B2B42F
:10018000B6B8BABCBFC1C3C5C7CACCCED1D3D5D708
:10019000DADCDFE1E3E6E8EBEDF0F2F5F7FAFCFF9D
:1001A0004E227F2B11241FBECFEFCDBFDFE3DEBF7A
:1001B00018E2A0E0B8E2E4EEFDE502C005900D9281
:1001C000A231B107D9F72DE2A2E1B8E201C01D9238
:1001D000A833B207E1F710E0C1EDD0E004C02197E9
:1001E000FE010E942F2DC03DD107C9F70E9418269D
:1001F0000C94682E0C940000FA01E61BF70BF7FD37
:1002000007C0820F931F8417950754F4AC0108C0F0
:10021000281739072CF4821B930B48175907B4F39E
:10022000CA01089590E080E02091FD2B281719065F
:1002300021F118F19C01220F331FE091FE2BF09168
:10024000FF2BE20FF31F0190F081E02D1082E0916F
:10025000FE2BF091FF2BE20FF31F0190F081E02DB8
:100260001182E091FE2BF091FF2BE20FF31F019022
:10027000F081E02D12820196D7CF8EE190E080933D
:10028000002C9093012C1092022C1092032C8AE0E7
:1002900090E08093042C9093052C85E090E080936F
:1002A000062C9093072C89E190E08093082C909382
:1002B000092C10920C2C10920D2C10920E2C1092D6
:1002C0000F2C1092102C1092112C1092122C1092B4
:1002D000132C81E08093142C1092152C1092162C64
:1002E0001092172C089570E0282F082E000C330B65
:1002F000621773073CF19091F52B282F291B30E0F2
:10030000220F331FE091FE2BF091FF2BE20FF31F22
:100310000190F081E02D1082E091FE2BF091FF2BF7
:10032000E20FF31F0190F081E02D11824091FE2B2E
:100330005091FF2B240F351FD901ED91FC911282B2
:100340008F5FD2CF08950F931F93CF93DF93E0E099
:1003500030E0962FA42F042E000CBB0B2A173B076E
:100360000CF443C05091F52BA42FA51B8823D9F181
:10037000C091042CD091052CE92FC617D7075CF447
:10038000E0910A2CF0910B2C8F010C1B1D0B6017B8
:1003900071072CF5EC2FB0E0AA0FBB1FC091FE2B0C
:1003A000D091FF2BCA0FDB1F0990D881C02DE883A5
:1003B000C091FE2BD091FF2BCA0FDB1F0990D88173
:1003C000C02D1982C091FE2BD091FF2BAC0FBD1F09
:1003D0000D90BC91A02D12961C924F5FBBCFE61BD7
:1003E000F70BF7FFD8CFE0E0D6CF8E2FDF91CF917C
:1003F0001F910F910895E9E3FBE284819581890FB4
:100400009927991F2681820F911D2781280F392F47
:10041000311D8085280F311D8185820F932F911DFD
:1004200091958195910992878387089530E020E026
:100430009091362C9217130629F120F1A901440F4F
:10044000551FE091372CF091382CE40FF51F0190E7
:10045000F081E02D1082E091372CF091382CE40FE0
:10046000F51F0190F081E02D1182E091372CF09181
:10047000382CE40FF51F0190F081E02D82832F5F6F
:100480003F4FD6CF0895880F991FECE2FCE2A38579
:10049000B485A80FB91F0D90BC91A02D1C92A38507
:1004A000B485A80FB91F0D90BC91A02D11961C9278
:1004B0000384F485E02DE80FF91F0190F081E02D11
:1004C000628308950F931F93CF93DF93EC012885E8
:1004D000222319F109851A852150D9F030E050E026
:1004E00040E06FEF7FEF80E090E00E94A42CF801E5
:1004F0004C815D81CF01801B910B8417950760F4BF
:100500004081429FC001439F900D112490833196FA
:10051000EFCF30E020E0EBCF1886DF91CF911F9135
:100520000F9108950F9391E0909378291092772975
:1005300060937529709376294093742920937329C9
:10054000109272291092712900937029880F80935C
:100550006F2923E030E044E050E080917429882343
:1005600041F020936D2930936E2980916F298E7F01
:100570000BC080917329882351F040936D295093CB
:100580006E2980916F2981608093A70808C08091AF
:100590007429811104C080917329882311F38091FB
:1005A00077298823E1F3809177298330B1F2809114
:1005B0007329882321F0809171290F9108958091EA
:1005C0007729823031F0853031F0813031F480E0AC
:1005D000F4CF81E0F2CF83E0F0CF84E0EECFE0EA29
:1005E000F8E091859066918722E030E020936D29B4
:1005F00030936E2980935F2910925E29089581E0DF
:1006000080935E2910925F2993E09093AA089091BD
:10061000AB0891FF10C010926B29E0915C29F0911A
:100620005D29099580936A2985E090E080936D2982
:1006300090936E29089510926C298093692986E021
:1006400090E0F4CF8F929F92AF92BF92CF92DF92C1
:10065000EF92FF92CF93DF9360342DE0720723E097
:100660008207910508F454C0611525E372072CE058
:100670008207910508F445C060387F4482419105A6
:1006800008F046C0C8E7D0E020E432E44FE050E094
:100690008090032890900428A0900528B090062808
:1006A000C501B4010E94D62C69017A018AE0C81AFA
:1006B000D108E108F108C501B40120E432E44FE0BB
:1006C00050E00E94D62CDE010E94C32C28EE33E0BD
:1006D00040E050E00E94D62CC21AD30AE40AF50A80
:1006E000F694E794D794C794C092A608DF91CF916F
:1006F000FF90EF90DF90CF90BF90AF909F908F9042
:100700000895CCE2D1E020E83AE146E050E0C0CFE5
:10071000C8EED3E020EA36E841E050E0B9CF60937C
:100720005A2970935B290895609358297093592929
:100730000895E0915A29F0915B29309741F0109289
:10074000572910925629099580915629089580E0DD
:100750000895E0915829F0915929309759F0309136
:10076000552920915429321728F010925529809349
:100770005429099408950895E091552980915429A8
:10078000E81730F4F0E0EC52F74D808190E00895E6
:100790008FEF9FEF089590915529809154292FEF65
:1007A0003FEF981748F4E92FF0E0EC52F74D208125
:1007B00030E09F5F90935529C90108958091542995
:1007C00090915529891B990B0895CF92DF92EF9252
:1007D000FF920F931F93CF93DF937C018A01EB016C
:1007E0006B01C40ED51ECC15DD0551F06991D70102
:1007F000ED91FC910190F081E02DC7010995F3CFB7
:10080000C801DF91CF911F910F91FF90EF90DF9082
:10081000CF9008952091562927FF08C021E030E0AD
:10082000FC012283338390E080E008958091572972
:10083000E82FF0E0EC5AF74D60838F5F80935729E3
:100840008093562981E090E00895DC01ED91FC91C0
:10085000008CF18DE02D61E009940F9380916D295A
:1008600090916E290197A1F480917829811112C08D
:10087000062F20E04091562964E578E280915328C4
:100880000E94920210925729109256290F910895B2
:1008900080E0F8CF81E0F6CF60935328109257297B
:1008A000109256290895DC01ED91FC91048CF58D90
:1008B000E02D21E009940F9384ED98E28093602964
:1008C0009093612980916D2990916E290197C9F4C7
:1008D00080917829811117C0FA014138510510F033
:1008E000E0E8F0E0022F862F2E2F40E070E060E07D
:1008F0000E949202109255298093542990E00F9102
:10090000089580E0F7CF81E0F5CFCB01BA010C94D8
:100910002203E0EAF8E01382168281E085831486E0
:10092000118610926D2910926E2908951092552902
:1009300010925429109257291092562980916D29AE
:1009400090916E29892BD9F482E090E080936D29F3
:1009500090936E2910926C2910926B2910925E2947
:1009600010925F291092522810926929660F6093A5
:10097000AC0881EE8093A90881E08093A30889E9FF
:1009800093E080935C2990935D2984E598E28093BD
:1009900062299093632989EA93E080936729909371
:1009A000682984ED98E2809364299093652980E812
:1009B000809366290895FC0154894589252F30E0EC
:1009C000842F90E0821B930B541710F0CF9608955C
:1009D00001970895FC0192898389981761F0A38992
:1009E000AE0FBF2FB11D59968C9193899F5F9F7356
:1009F000938B90E008958FEF9FEF0895FC0192890B
:100A00008389981731F08389E80FF11D818D90E07B
:100A100008958FEF9FEF0895FC0192892389892F14
:100A200090E0805C9F4F821B91098F7399270895F6
:100A3000CF93DF93EC01E881F9810680F781E02D07
:100A40000995EC85FD8586818F738683EC85FD8510
:100A500085818F7585838B898A8B198ADF91CF91E8
:100A60000895CF93DF93FC0194898589C485D5854A
:100A7000981306C08D818F7D8D83DF91CF9108956E
:100A8000A589AE0FBF2FB11DA75ABF4F2C918589E5
:100A900090E001968F739927858B80E48C83A485E1
:100AA000B58512962C93948985899813E6CFA485F1
:100AB000B58515968C9115978F7D15968C938789A2
:100AC0008823D9F2808D80931301178AD6CFDC0159
:100AD0001C96ED91FC910FB607FE03C0258125FD04
:100AE00004C0248125FD0C9431050895EF92FF92F6
:100AF0000F931F93CF93DF93EC0181E0898B9C8947
:100B00008D8998131CC0AC85BD8514968C91149763
:100B100085FF15C012966C93AC85BD8580E4149654
:100B20008C93EC85FD8585818F7D858381E090E0C8
:100B3000DF91CF911F910F91FF90EF9008958091D9
:100B4000110180FF08C080911301888F8E898093E6
:100B5000130181E08F8BF62E0C8910E00F5F1F4F81
:100B60000F731127E02E8D898E1104C0CE010E94D3
:100B70006705F9CFEC89EC0FFD2FF11DE75AFF4F08
:100B8000F0820C8BEC85FD8585818062CECF60E2A2
:100B900082E49AE20C947605CF93DF93FC012189DD
:100BA0002223C9F0EC018091110180FF08C08091DF
:100BB0001301808F86898093130181E0878BEC85F8
:100BC000FD85858185FD03C0848186FD04C0CE013D
:100BD0000E946705F4CFDF91CF910895CF93DF9303
:100BE00090E0FC01EA58F24620812F3F71F0FC01B1
:100BF000E057F246A08130E2A39FD0011124BC5FF0
:100C00006130710529F411962C93DF91CF910895ED
:100C1000845A9246EC01E881EF3F89F0CD0140967D
:100C2000E80FF92FF11D9FB7F89412962C9380814D
:100C30006230710539F4886080839FBFE6CFF0E0B1
:100C4000E0E0F1CF877FF8CF8B3210F40C94EE0503
:100C500008951092552910925429109257291092F4
:100C6000562980916D2990916E29892B41F562E07A
:100C700070E086E10E94EE0562E070E087E10E948C
:100C8000EE058091E3058093E30581E090E0809399
:100C90006D2990936E2910927129109272291092E9
:100CA00078291092772981EC8093A30860EA76E88E
:100CB00081E090E00E94220381E08093A5080895DE
:100CC000282F30E0F901EE5BF246E081EE2309F1D6
:100CD000E13021F0F0F0E63098F008954091010AFB
:100CE000245A3246F90120812C5F81E090E001C056
:100CF000880F2A95EAF7809584238093010A089546
:100D000080E1E89FF0011124E05AF54F81818F7E48
:100D1000818308950F931F93CF93082F10E0F8015C
:100D2000EA58F246C081CF3FB9F08B3210F40E94EE
:100D30006006F801E057F246E08180E2E89FF001AA
:100D40001124FC5F8085C82381E090E009F480E0F5
:100D5000CF911F910F91089580E090E0F9CFFF921D
:100D60000F931F93CF93DF938B32D8F4082F10E0AB
:100D7000F801EA58F246F0809FEFF91691F0EB0186
:100D80000E946006F801E057F246E08180E2E89FA9
:100D9000F0011124FC5F80818F2159F0CD2B39F4B3
:100DA000F682DF91CF911F910F91FF900895F58208
:100DB000F8CFD801A45AB2468C91309771F08F3F8A
:100DC00061F07096E80FF11D9FB7F8948081CD2BEC
:100DD00039F4877F80839FBFE4CFF0E0E0E0F4CF79
:100DE0008860F8CFCF92DF92EF92FF920F931F931C
:100DF000CF93DF93EC016A017B01022F898988235D
:100E000039F0E881F9810288F389E02DCE01099556
:100E100098898091E205892B8093E2051FB7F894A9
:100E200060E070E281EA97E0A70196010E94D62C6B
:100E300069017A018FEFC81AD80AE80AF80AF6940D
:100E4000E794D794C794EC85FD8586818D7F868352
:100E5000EC85FD8586818683198AA09123110A2E4F
:100E6000000CBB0BA70196010E94CE2C20E034E0C1
:100E700040E050E00E94A42CEC85FD85C20ED31EFC
:100E8000E41EF51EC086D186EC85FD850783EC85C2
:100E9000FD858681806C8683EC85FD8585818068F3
:100EA00085838E8562E070E00E9424068F8561E074
:100EB00070E00E94AF068F8561E070E00E9424061A
:100EC0001FBFDF91CF911F910F91FF90EF90DF90A7
:100ED000CF900895CF93DF938FB7F89420914E2849
:100EE00030914F284091502850915128E091BA0AF2
:100EF0009091B60A90FF06C02F5F3F4F4F4F5F4F54
:100F0000E091BA0A8FBFA0914C28B0914D28C091B2
:100F10004A28D0914B280E94C32CEC9F9001ED9F52
:100F2000300D1124620F731F811D911DDF91CF9130
:100F300008958F929F92AF92BF92CF92DF92EF92DD
:100F4000FF924B015C010E946A076B017C01A8EED5
:100F5000B3E0A50194010E94C32CC60ED71EE81E63
:100F6000F91EC616D706E806F90618F40E946A07A5
:100F7000F8CF0E946A076C157D058E059F05C8F3A2
:100F8000FF90EF90DF90CF90BF90AF909F908F90A9
:100F900008952FB7F8946091462870914728809162
:100FA0004828909149282FBF08950F931F930E94BE
:100FB000C90700917A2C10917B2C20917C2C3091C8
:100FC0007D2C601B710B820B930B623371058105C5
:100FD000910590F10E94C90760937A2C70937B2C45
:100FE00080937C2C90937D2C20917E2C422F50E07E
:100FF00080919B2C90E031E0E92F092E000CFF0B33
:10100000E417F5075CF4E658F34D181614F0158252
:1010100003C09817E4F735839F5FEECF90919C2C27
:10102000911113C08F5F682F082E000C770B4617A5
:1010300057072CF080939B2C1F910F9108952093BC
:101040009B2C81E080939C2CF7CF18161CF48150C8
:1010500080939B2C80919B2C8111EECF10929C2C25
:10106000EBCF0F931F93CF93DF930E94C90700919B
:101070007A2C10917B2C20917C2C30917D2C601B44
:10108000710B820B930B663471058105910508F491
:1010900041C00E94C90760937A2C70937B2C809387
:1010A0007C2C90937D2C60917E2CE62FF0E080913B
:1010B0009B2C482F082E000C550B4150510990E0F5
:1010C000DA01A158B34D71E0292F092E000C330B22
:1010D0002E173F075CF42417350719F47C939F5FA4
:1010E000F3CF2658334DE9011D82F9CF90919C2C06
:1010F000911115C08F5F282F082E000C330B2E176F
:101100003F071CF480939B2C05C060939B2C81E0CF
:1011100080939C2CDF91CF911F910F910895815066
:10112000823084F781E080939B2C10929C2CF2CF2C
:101130000F931F93CF93DF930E94C90700917A2CDE
:1011400010917B2C20917C2C30917D2C601B710B9D
:10115000820B930B623371058105910508F453C02E
:101160000E94C90760937A2C70937B2C80937C2C0F
:1011700090937D2C90917E2CA92FB0E080919D2C96
:10118000282F082E000C330BE9012196BD01615078
:101190007109621B730B8B010F5F1F4F40E051E021
:1011A000242F042E000C330B2A173B07D4F4F9012B
:1011B000E658F34D913140F4481719F026173707D8
:1011C00071F455834F5FECCF4817D9F32C173D07C7
:1011D000C1F326173707A9F32017310791F31582BA
:1011E000F1CF20919C2C21111AC08F5F9695482F2A
:1011F000082E000C550B692F6150770B46175707C7
:101200003CF480939D2CDF91CF911F910F91089515
:10121000915090939D2C81E080939C2CF4CF1816D4
:101220001CF4815080939D2C80919D2C18165CF3AA
:1012300010929C2CE8CF4F925F926F927F928F9288
:101240009F92AF92BF92CF92DF92EF92FF920F9355
:101250001F93CF93DF93FC015A01E901662309F440
:1012600089C08091002C9091012C8093A5299093A6
:10127000A6298090022C9090032C8092A329909212
:10128000A4292091042C3091052C2093A12930937E
:10129000A2296090062C7090072C60929F29709272
:1012A000A0294090082C5090092C40929D295092E2
:1012B0009E29BA01681B790B77FF03C07195619570
:1012C0007109CF010E941B2D60939B2970939C296B
:1012D000BE016819790977FF03C07195619571099D
:1012E000CF010E941B2D6093992970939A29B80110
:1012F000621B730B77FF03C0719561957109CF0174
:101300000E941B2D6093972970939829B701661945
:10131000770977FF03C0719561957109CF010E942C
:101320001B2D6093952970939629B6016419750950
:1013300077FF03C0719561957109CF010E941B2D44
:10134000609393297093942981E090E08093912990
:101350009093922980938F299093902980938D293F
:1013600090938E2980938B2990938C29809389293F
:1013700090938A290E94C9074090F12B5090F22B3C
:101380006090F32B7090F42BAB01BC01441955090C
:10139000660977098091002C9091012C092E000C90
:1013A000AA0BBB0B481759076A077B0708F41AC139
:1013B0000E94C9076093F12B7093F22B8093F32B5B
:1013C0009093F42B8091042C9091052C880F991FF9
:1013D0002091062C3091072C820F931F80930A2CAA
:1013E00090930B2C8091142C882309F160910C2C84
:1013F00070910D2C2091F62B4091F52B81E00E94ED
:10140000A30120910C2C30910D2C80910A2C9091ED
:101410000B2C2817390708F022C28091022C9091DA
:10142000032C820F931F80930C2C90930D2C809192
:10143000152C811114C080910A2C90910B2C2091B5
:10144000082C3091092C821B930B20910C2C30918D
:101450000D2C8217930718F481E08093152C80914E
:10146000152C882309F160910E2C70910F2C20917E
:10147000F82B4091F72B81E00E94A30120910E2CC4
:1014800030910F2C80910A2C90910B2C2817390742
:1014900008F0F2C18091022C9091032C820F931FCF
:1014A00080930E2C90930F2C8091162C811114C0D8
:1014B00080910A2C90910B2C2091082C3091092CB2
:1014C000821B930B20910E2C30910F2C82179307C7
:1014D00018F481E08093162C6091102C7091112CDF
:1014E0002091FA2B4091F92B8091162C0E94A30198
:1014F0008091162C882309F16091102C7091112C89
:101500002091FA2B4091F92B81E00E94A3012091B8
:10151000102C3091112C80910A2C90910B2C2817B3
:10152000390708F0B6C18091022C9091032C820FEC
:10153000931F8093102C9093112C8091172C811164
:1015400014C080910A2C90910B2C2091082C309182
:10155000092C821B930B2091102C3091112C821797
:10156000930718F481E08093172C8091172C88231F
:1015700009F16091122C7091132C2091FC2B409159
:10158000FB2B81E00E94A3012091122C3091132C9F
:1015900080910A2C90910B2C2817390708F086C1EE
:1015A0008091022C9091032C820F931F8093122C18
:1015B0009093132C8091142C811114C080910A2CCB
:1015C00090910B2C2091082C3091092C821B930BAD
:1015D0002091122C3091132C8217930718F481E07C
:1015E0008093142C0E94C9074090182C5090192CFD
:1015F00060901A2C70901B2CAB01BC01441955094A
:101600006609770980919B2990919C29092E000CED
:10161000AA0BBB0B481759076A077B07E8F00E9423
:10162000C9076093182C7093192C80931A2C9093EF
:101630001B2C20919129309192296091A5297091BC
:10164000A629A5018091002C9091012C0E94FC00FC
:101650008093002C9093012C0E94C90780901C2C31
:1016600090901D2CA0901E2CB0901F2CAB01BC01A3
:10167000481959096A097B098091992990919A29F9
:10168000092E000CAA0BBB0B481759076A077B07EA
:10169000E8F00E94C90760931C2C70931D2C809366
:1016A0001E2C90931F2C20918F29309190296091AE
:1016B000A3297091A429AE018091022C9091032C52
:1016C0000E94FC008093022C9093032C0E94C90777
:1016D0008090202C9090212CA090222CB090232C34
:1016E000AB01BC01481959096A097B098091972906
:1016F00090919829092E000CAA0BBB0B481759078B
:101700006A077B0738F10E94C9076093202C709309
:10171000212C8093222C9093232CC091A129D0912D
:10172000A22920918D2930918E29A801BE01809196
:10173000042C9091052C0E94FC008093042C909323
:10174000052C0C171D0734F40B9724F41092042C6D
:101750001092052C0E94C9070091242C1091252C71
:101760002091262C3091272CAB01BC01401B510B42
:10177000620B730B8091952990919629092E000C8C
:10178000AA0BBB0B481759076A077B07E8F00E94B2
:10179000C9076093242C7093252C8093262C90935A
:1017A000272C20918B2930918C2960919F29709151
:1017B000A029A7018091062C9091072C0E94FC0083
:1017C0008093062C9093072C0E94C9070091282C27
:1017D0001091292C20912A2C30912B2CAB01BC018B
:1017E000401B510B620B730B8091932990919429AC
:1017F000092E000CAA0BBB0B481759076A077B0779
:10180000E8F00E94C9076093282C7093292C8093DC
:101810002A2C90932B2C2091892930918A29609130
:101820009D2970919E29A6018091082C9091092CE8
:101830000E94FC008093082C9093092CDF91CF919B
:101840001F910F91FF90EF90DF90CF90BF90AF90DE
:101850009F908F907F906F905F904F9008956091D0
:10186000F62B8091F52B0E94730110920C2C109294
:101870000D2C1092142CDBCD6091F82B8091F72B5E
:101880000E94730110920E2C10920F2C1092152CA6
:101890000BCE6091FA2B8091F92B0E94730110926C
:1018A000102C1092112C1092162C47CE6091FC2B0C
:1018B0008091FB2B0E9473011092122C1092132C1A
:1018C0001092172C77CECF92DF92EF92FF920F9368
:1018D0001F9322E3C22ED12C34E6E32EF12C04E632
:1018E00010E025E030E044E150E00E941B091F9128
:1018F0000F91FF90EF90DF90CF900895CF92DF92FD
:10190000EF92FF920F931F9326E4C22ED12C32E365
:10191000E32EF12C06E910E02AE030E04FE050E041
:101920000E941B091F910F91FF90EF90DF90CF90C5
:101930000895CF92DF92EF92FF920F931F9398EC4E
:10194000C92ED12CF12CE12C0FEF10E029E130E071
:1019500045E050E0682F88E893E10E941B091F9141
:101960000F91FF90EF90DF90CF9008950F931F930A
:10197000CF93DF93EA016623E1F020913B2C309175
:101980003C2C2093872930938829BA01621B730B62
:1019900077FF03C07195619571090E941B2D6093BB
:1019A00085297093862981E090E080938329909324
:1019B00084290E94C90700917F29109180292091D4
:1019C000812930918229AB01BC01401B510B620B74
:1019D000730B8091852990918629092E000CAA0B02
:1019E000BB0B481759076A077B0770F10E94C907AC
:1019F00060937F2970938029809381299093822915
:101A0000209183293091842980913B2C90913C2C0A
:101A10004091872950918829BE01641B750B77FD81
:101A200007C0820F931F8C179D0754F4EC0108C068
:101A3000281739072CF4821B930BC817D907B4F366
:101A4000C0933B2CD0933C2CDF91CF911F910F91F1
:101A500008950F931F93CF9380917E29811120C009
:101A60000E94C9070091322C1091332C2091342C04
:101A70003091352C601B710B820B930B693B7B40C3
:101A80008105910560F10E94C9076093322C709323
:101A9000332C8093342C9093352C81E080937E29D5
:101AA0000E94C9070091322C1091332C2091342CC4
:101AB0003091352C601B710B820B930B653F71408D
:101AC0008105910560F00E94C9076093322C7093E4
:101AD000332C8093342C9093352C10927E29C0E0C7
:101AE0008091362CC81788F4C1110BC080917E29D3
:101AF000882339F064E690E080E00E944302CF5FE3
:101B0000EFCF60E08C2F90E0F8CF1092392C81500D
:101B100080933A2CCF911F910F9108950F931F93AB
:101B2000CF93DF93EC010E94C9070091322C1091F2
:101B3000332C2091342C3091352CAB01BC01401B4F
:101B4000510B620B730BCE01DD0FAA0BBB0B4817B9
:101B500059076A077B0750F10E94C9076093322C2E
:101B60007093332C8093342C9093352CC0E02091CB
:101B7000362C30E09091392C4C2F0C2E000C550B4C
:101B8000421753074CF464E6C9170CF060E0CA0131
:101B90000E944302CF5FEBCF492F092E000C550B5B
:101BA0004217530744F49F5F9093392CDF91CF91F4
:101BB0001F910F9108951092392CF8CF4FE050E00B
:101BC000682F88E893E10E94B60C80913B2C90919D
:101BD0003C2C0C948E0D48E250E00E94B60C809193
:101BE0003B2C90913C2C0C948E0D0F931F930E94D4
:101BF000C90700917A2910917B2920917C29309185
:101C00007D29AB01BC01401B510B620B730B4231B0
:101C100051056105710508F448C0D901C801419614
:101C2000A11DB11D80937A2990937B29A0937C29D3
:101C3000B0937D2950E08091D12B5817B0F5252F16
:101C400030E0220F331FE091D22BF091D32BE20F23
:101C5000F31F0190F081E02D408191818281443019
:101C6000F0F043509430E8F093508430E0F083502B
:101C70004083E091D22BF091D32BE20FF31F019020
:101C8000F081E02D91836091D22B7091D32B260FA0
:101C9000371FD901ED91FC9182835F5FCCCF40E08B
:101CA000E1CF90E0E2CF80E0E3CF1F910F91089564
:101CB000AF92BF92CF92DF92EF92FF920F931F935A
:101CC000CF93DF936C017B018B01040F151FEB0198
:101CD0005E01AE18BF08C017D10759F06991D6014F
:101CE000ED91FC910190F081E02DC6010995892BC1
:101CF00079F7C501DF91CF911F910F91FF90EF9080
:101D0000DF90CF90BF90AF90089590E080E008956D
:101D1000FC01A485B58511968C91119781FD1BC09E
:101D20006C9182898F5F8F739389981739F0A2899C
:101D3000AE0FBF2FB11D59966C93828BE756FF4FA4
:101D400080819181009741F0DC01ED91FC9101903F
:101D5000F081E02D09948C91089581E008950F930E
:101D60001F93DC0112968D919C9113976817790748
:101D7000C0F518968C911897882361F0489FA001B0
:101D80001124452F829F90011124232F809F8001D1
:101D90001124012F1E968C911E971996ED91FC919E
:101DA0001A971B969C911B9789131EC0CB01880F15
:101DB000991F680F791F6E0F7F1F1B96EC911B9761
:101DC000E60FF72FF11D40831C96EC911C97E60F50
:101DD000F72FF11D20831D968C91680F711DFB015B
:101DE00000831F910F910895660F771F660F771F6D
:101DF0006E0F7F1FFB01E80FF11D1082DECFCF9227
:101E0000DF92EF92FF920F931F93CF93DF93CDB7A3
:101E1000DEB72997CDBFDEBF8C01DC0119968D910D
:101E20009C91892B09F473C00E946A07F801C7844A
:101E3000D088E188F2886C157D058E059F0520F419
:101E40006787708B818B928BF801C784D088E1887B
:101E5000F2886C197D098E099F096C3271408105E9
:101E6000910510F3F894D80114968D919C911597D3
:101E700089839A831996ED91FC917F01BFEFEB1A4C
:101E8000FB0A80818987F80190810388F489E02D1D
:101E9000D80155968C91992309F445C09081982BCF
:101EA00098879081809589238F838F818C8388E0A8
:101EB0008B8358856F8149853B812C8189819A81EB
:101EC000D701508347FD252F3A952083262F39F0DF
:101ED000441F00C000006083000000C0F2CF38E063
:101EE0004D9160830000019761F7D8015396ED93FF
:101EF000FC93549749873B832C8389839A837894F6
:101F00000E946A07F8016787708B818B928B2996F4
:101F1000CDBFDEBFDF91CF911F910F91FF90EF906A
:101F2000DF90CF9008959081982B9887908180952D
:101F300089238F838F818E8388E08D8358856F817D
:101F400049853D812E8189819A81D701508347FD42
:101F5000252F00C000C0208300C000C000C000C00A
:101F600000C060830000262F3A9541F0441F000016
:101F700000C000C000C000C000C0E8CF38E04D91F4
:101F800000C0608300C0019709F7D8015396ED9314
:101F9000FC93549749873D832E83AFCFCF93DF9334
:101FA000EC018E819F8197FD09C061E070E00E9485
:101FB000240670E060E08E810E94AF0681E0898394
:101FC000DF91CF9108952F923F924F925F926F923F
:101FD0007F928F929F92AF92BF92CF92DF92EF92B9
:101FE000FF920F931F93CF93DF93CDB7DEB73B01E3
:101FF000FA01222369F0DB018D919C91D8018D9328
:102000009C938E159F0509F047C0D6011D921C9226
:10201000EF2B19F4F301E082F182D3018D919C91B1
:102020008E159F0509F451C00E94C907F401208153
:102030003181428153811B012C01221A330A440A47
:10204000550AB201A101D6018D919C91092E000C77
:10205000AA0BBB0B481759076A077B07D8F00E94E9
:10206000C907F4016083718382839383D3018D91C7
:102070009C91F801208131811701221A330A37FC23
:102080001AC0A80EB91EAE14BF040CF47501D3011A
:10209000ED92FC9280E01AC0B701681B790B77FFC4
:1020A00003C0719561957109CF010E941B2DD60166
:1020B0006D937C93ADCFA816B9064CF78A199B098E
:1020C000E816F90624F77C01E2CF81E0DF91CF9199
:1020D0001F910F91FF90EF90DF90CF90BF90AF9046
:1020E0009F908F907F906F905F904F903F902F9038
:1020F00008957F928F929F92AF92BF92CF92DF927C
:10210000EF92FF920F931F93CF93DF93EC01762E04
:1021100028EC30E0DC010E94352D24E630E040E080
:1021200050E00E94D62CA901F3E48F2EFCE29F2EF2
:10213000A2E0AA2EB12CBEE5CB2EBCE2DB2EF12C08
:10214000E12C08E51CE2272D62E57CE28DE39CE2B0
:102150000E94E30F772029F01092792981E0809383
:10216000072880917929811133C02CE830E0DE0105
:102170000E94352D24E630E040E050E00E94D62C4D
:10218000A9013BE4832E3CE2932E62E0A62EB12C03
:1021900072E6C72E7CE2D72EEE24EA94F12C0CE5F1
:1021A0001CE2272D66E57CE28DE39CE20E94E30FB2
:1021B00080937929DF91CF911F910F91FF90EF903C
:1021C000DF90CF90BF90AF909F908F907F900895B9
:1021D000709007282CE330E0DE010E94352D24E6C4
:1021E00030E040E050E00E94D62CA9018BE4882E1C
:1021F0008CE2982E92E0A92EB12C22E6C22E2CE27F
:10220000D22EF12CE12C0CE51CE2272D66E57CE2B8
:102210008DE39CE20E94E30F772061F21092072881
:10222000C9CF3F924F925F926F927F928F929F920F
:10223000AF92BF92CF92DF92EF92FF920F931F93D4
:10224000CF93DF93EC01362E2BE430E0DC010E94CB
:10225000352D24E6422E512C612C712CA3019201C4
:102260000E94D62CA90133E4832E3CE2932EAA24AB
:10227000A394B12C7EE5C72E7CE2D72EEE24EA94FF
:10228000F12C08E51CE2232D62E57CE28DE39CE263
:102290000E94E30F24E630E0DE010E94352DA30109
:1022A00092010E94D62CA901FBE48F2EFCE29F2E06
:1022B000AAE0AA2EB12CB2E6CB2EBCE2DB2EF12C8A
:1022C000E12C0CE51CE2232D66E57CE28DE39CE22B
:1022D0000E94E30FDF91CF911F910F91FF90EF903C
:1022E000DF90CF90BF90AF909F908F907F906F9036
:1022F0005F904F903F9008957F928F929F92AF9200
:10230000BF92CF92DF92EF92FF920F931F93CF93E2
:10231000DF93EC01762E8CEA882E8BE2982EAA248D
:10232000A394B12C27ECC22E2BE2D22E32E3E32E63
:10233000F12C01EC1BE2262FAE016BEB7BE286EA6F
:102340009BE20E94E30F40EB842E4BE2942E59EC6B
:10235000C52E5BE2D52E03EC1BE2272DAE016DEB03
:102360007BE286EA9BE20E94E30F64EB862E6BE23F
:10237000962E7BECC72E7BE2D72EEE24EA94F12C2E
:1023800005EC1BE2272DAE016FEB7BE286EA9BE2B8
:102390000E94E30FDF91CF911F910F91FF90EF907B
:1023A000DF90CF90BF90AF909F908F907F900895D7
:1023B0000F931F93CF93DF93EC0110E02C89812FB3
:1023C000012E000C990B2817190669F064F06A8930
:1023D000610F70E0098D2F894D89888199810E9454
:1023E000AF0E1F5FEBCFDF91CF911F910F9108953B
:1023F0000F931F93CF93DF93EC018A818B838881A6
:102400009981992361F030E020E08B3218F40E942A
:102410008A069C0191E0232B61F490E00AC030E031
:1024200020E08B3218F40E948A069C0191E0232B55
:10243000A1F79C838C819D81891739F08D830E943F
:10244000C9076E837F83888799870E94C9070E8199
:102450001F8128853985601B710B820B930B6333B9
:1024600071058105910520F08C819A8189138A83F9
:102470008A81DF91CF911F910F91089562E070E002
:10248000FC0180810C942406CF93DF93EC018881BA
:10249000882379F08A81882361F070E060E0898187
:1024A0000E94AF060E94C9076F83788789879A8741
:1024B0001A82DF91CF9108950F931F93CF93DF93EB
:1024C000EC018881882329F18A81811122C00E9430
:1024D000C9070F81188529853A85601B710B820B0E
:1024E000930BEB89FC890081118122813381601774
:1024F00071078207930768F061E070E089810E94AC
:10250000AF060E94C9076B837C838D839E8381E025
:102510008A83DF91CF911F910F9108950F931F939D
:10252000CF93DF93EC018881882309F43FC08A812F
:102530008823E1F18F859889892BD1F00E94C90702
:102540000B811C812D813E81AB01BC01401B510BD5
:10255000620B730B8F859889B0E0A0E0481759078C
:102560006A077B0728F01F86188ACE010E94441252
:102570000E94C9070B811C812D813E81601B710B5C
:10258000820B930BE989FA890081118122813381C1
:10259000601771078207930748F01F86188ACE01DB
:1025A000DF91CF911F910F910C944412DF91CF9145
:1025B0001F910F910895CF93DF93EC01288122237F
:1025C00051F061E070E089810E942406CE01DF9124
:1025D000CF910C9444121A82DF91CF9108950F93FA
:1025E0001F930E94C907009132281091332820912F
:1025F000342830913528601B710B820B930B21E03E
:10260000673971058105910508F420E0822F1F913B
:102610000F910895909131288823A1F0911124C041
:102620000E94EF12882301F10E94C90760933228AB
:1026300070933328809334289093352881E08093D9
:1026400031280895992381F00E94EF12882361F0C8
:102650000E94C907609332287093332880933428EE
:1026600090933528109231280895CF93811103C09B
:1026700080E0CF910895C62F0E94EF128823C1F306
:10268000C0933F2810923E28F4CFCF92DF92EF9272
:10269000FF920F931F93CF93DF93C82FD62F0E94E3
:1026A000C9070091642B1091652B2091662B309106
:1026B000672B601B710B820B930BC090742BD09017
:1026C000752BE090762BF090772B2091392B6C15A1
:1026D0007D058E059F05B8F4211103C081E080932C
:1026E000392B8091392B811113C0D0933F28109240
:1026F0003E2881E0DF91CF911F910F91FF90EF90E5
:10270000DF90CF900895222361F31092392BE9CF07
:102710000E94C90700913A2810913B2820913C283B
:1027200030913D28AB01BC01401B510B620B730B78
:10273000EC2FF0E0EE0FFF1FE651F3468081918110
:1027400086599109B0E0A0E0481759076A077B074E
:1027500060F680E0CFCFDC01ED91FC910088F1893B
:10276000E02D23E030E009940F93E22FF0E0E056F3
:10277000FF4F0491E42FF0E0E056FF4F2491E62F45
:10278000F0E0E056FF4F4491FC01668170E08081EB
:1027900091810E94AF0E0F91089526E946E966E9FE
:1027A0008BE89BE20C94B41320E044E66FEF82E8E0
:1027B0009BE20C94B41320E048EC6FEF0C94B4133C
:1027C00020E040E06FEF0C94B41320E040E060E0C4
:1027D0000C94B4130F931F93CF93DF93EC01892BC9
:1027E00009F440C08091922B811105C01092932B67
:1027F00081E08093922B0E94C90700918D2B10914C
:102800008E2B20918F2B3091902BAB01BC01401B64
:10281000510B620B730BCE01B0E0A0E048175907D3
:102820006A077B0790F00E94C90760938D2B709315
:102830008E2B80938F2B9093902B8091932B8823BA
:1028400049F00E94CD131092932BDF91CF911F91ED
:102850000F9108958BE89BE20E94E51381E080933D
:10286000932BF3CF0E94CD131092922BEECF0F93A8
:102870001F93CF93DF93EC01892B09F440C0809123
:10288000892B811105C010928A2B81E08093892BBE
:102890000E94C9070091842B1091852B2091862BD3
:1028A0003091872BAB01BC01401B510B620B730BAA
:1028B000CE01B0E0A0E0481759076A077B0790F007
:1028C0000E94C9076093842B7093852B8093862B7D
:1028D0009093872B80918A2B882349F00E94D413F0
:1028E00010928A2BDF91CF911F910F91089582E86A
:1028F0009BE20E94E51381E080938A2BF3CF0E9434
:10290000D4131092892BEECFCF92DF92EF92FF92E9
:102910000F931F93CF93DF93EC018B01672BA9F1EA
:102920008F81811103C0188681E08F830E94C907BF
:10293000CA80DB80EC80FD80AB01BC014C195D09D5
:102940006E097F0930E020E04017510762077307E6
:1029500068F00E94C9076A837B838C839D83888586
:10296000882369F0CE010E94E0131886DF91CF9191
:102970001F910F91FF90EF90DF90CF900895CE01BF
:102980000E94E51381E08887F1CF0E94E0131F8247
:10299000EDCFFC0112A211A213A214A294813596CC
:1029A00080E0981719F011928F5FFBCF0895AF92D6
:1029B000BF92CF92DF92EF92FF920F931F93CF932C
:1029C000DF9300D0CDB7DEB769834A83880F991FA4
:1029D0000091FA2C1091FB2C000F111FEAE7FCE28A
:1029E0009F012A573C42201731071CF412A631964A
:1029F000F7CF2981FC01E658F34D23A78A8182A7EE
:102A000070E060E08091F82C0E94AF060658134DEC
:102A1000C8018A579C42181619063CF5F801C1A452
:102A2000B090F62CA090F42C87E0E82EF12CD12C5D
:102A3000B6010E2C02C0759567950A94E2F7617095
:102A400077278A2D0E94AF0661E070E08B2D0E94EF
:102A5000AF0670E060E08B2D0E94AF06F1E0EF1A48
:102A6000F10830F701501109D3CF61E070E0809197
:102A7000F82C0F900F90DF91CF911F910F91FF9045
:102A8000EF90DF90CF90BF90AF900C94AF06EF9295
:102A9000FF920F931F93CF937C018C0183E0000F73
:102AA000111F8A95E1F70C54134DC1E0F801119202
:102AB0008F0140E06C2FC7010E94D714CF5FC9304F
:102AC000A9F7CF911F910F91FF90EF9008951F9359
:102AD000CF93DF9310E0C0E8D0E080919F2C1817CF
:102AE00008F043C09091A02C8150811B911101C02E
:102AF000812F2091FA2C3091FB2C1216130684F5AD
:102B000090E0FC01EE0FFF1FE450F34D6081683050
:102B100038F5880F991FFC01E350F34D8081282F71
:102B200030E028303105E4F4E62FF0E09E0102C0E9
:102B3000359527958A95E2F7C901E658F34D22AD00
:102B4000A12FB0E0A658B34D15963C91332351F018
:102B5000822B82AF6F5F42AD90E080E00E94D7147D
:102B60001F5FBBCF80958223F4CFDF91CF911F9160
:102B70000895FC0101900020E9F73197AF01481B4F
:102B8000590BBC0182E49AE20C94580E0F931F93E8
:102B9000CF93DF93CDB7DEB7A197CDBFDEBF482F70
:102BA00050E070E060E019A2CE0181968A019B019D
:102BB0000F7011272227332724E0769567955795C4
:102BC00047952A95D1F70A30ACF4005DFC010293D9
:102BD000CF01411551056105710541F7EF2B61F0FA
:102BE0000E94B915A196CDBFDEBFDF91CF911F9195
:102BF0000F910895095CEACF90E080E0F3CFAF92A7
:102C0000BF92CF92DF92EF92FF920F931F93CF93D9
:102C1000DF9380913A2B90913B2BDC01ED91FC915D
:102C20000190F081E02D60913C2B099580913A2B29
:102C300090913B2BDC01ED91FC910190F081E02D16
:102C400060913D2B099580913A2B90913B2BDC01B3
:102C5000ED91FC910190F081E02D60913E2B099562
:102C600080913A2B90913B2BDC01ED91FC910190EE
:102C7000F081E02D60913F2B099580913A2B909146
:102C80003B2BDC01ED91FC910190F081E02D6091F6
:102C9000402B099580913A2B90913B2BDC01ED91D3
:102CA000FC910190F081E02D6091412B099580917C
:102CB0003A2B90913B2BDC01ED91FC910190F0813E
:102CC000E02D6091422B099580913A2B90913B2BFE
:102CD000DC01ED91FC910190F081E02D6091432B9E
:102CE000099580913A2B90913B2BDC01ED91FC9161
:102CF0000190F081E02D6091442B099580913A2B51
:102D000090913B2BDC01ED91FC910190F081E02D45
:102D10006091452B09958091502B882309F462C05E
:102D200084ED9DE90E94B915A0903C2BB0903D2BFD
:102D3000C0903E2BD0903F2BE090402BF090412B49
:102D40000091422B1091432BD091442BC091452BE5
:102D50008AED9DE90E94B91581EE9DE90E94B915A1
:102D60008A2D0E94C6150E94C7058B2D0E94C6158C
:102D70000E94C7058C2D0E94C6150E94C7058D2D87
:102D80000E94C6150E94C7058E2D0E94C6150E947E
:102D9000C7058F2D0E94C6150E94C705802F0E946F
:102DA000C6150E94C705812F0E94C6150E94C7053F
:102DB0008D2F0E94C6150E94C7058C2F0E94C61534
:102DC00081EE9DE90E94B91581EE9DE9DF91CF91D9
:102DD0001F910F91FF90EF90DF90CF90BF90AF9039
:102DE0000C94B915DF91CF911F910F91FF90EF9047
:102DF000DF90CF90BF90AF9008950F931F93CF9324
:102E00009091312B911135C0162FC82F0E94C90700
:102E10006093322870933328809334289093352818
:102E2000C11110C086E180933F2B1092402B10926D
:102E3000412B1092422B0E94FB01CF911F910F91C9
:102E40000C94FF151123C9F088E080933F2B10925A
:102E5000402B1092412BC093422B0E94FB010E94F9
:102E6000FF151092742B1092752B1092762B1092E6
:102E7000772BCF911F910F910895EC2FF0E0EE0F7B
:102E8000FF1FE651F3460081118183E080933F2BC1
:102E90001092402B1092412BC093422B0E94FB01B9
:102EA0000E94FF150E94C9076093642B7093652BE5
:102EB0008093662B9093672B30E020E00093742B77
:102EC0001093752B2093762B3093772BD2CF0F93C3
:102ED0001F93CF9380913028811124C08091312B92
:102EE000882309F4AFC00E94EF12882309F4AAC016
:102EF0000E94C90760933228709333288093342846
:102F00009093352887E180933F2B1092402B1092AD
:102F1000412BC1E0C093422B0E94FB010E94FF1590
:102F2000C09330288091132B9091142B891761F056
:102F3000882351F00E94C90760932C2870932D2894
:102F400080932E2890932F288091132B9091142BEF
:102F5000891761F181112AC00E94C90700912C28AC
:102F600010912D2820912E2830912F28601B710B55
:102F7000820B930B683E734081059105B8F40E9463
:102F8000C907609332287093332880933428909334
:102F9000352881E080933F2B1092402B1092412BDB
:102FA0001092422B0E94FB010E94FF158091092B79
:102FB00090910A2B891761F0882351F00E94C9076C
:102FC000609328287093292880932A2890932B288F
:102FD0008091092B90910A2B891761F181112AC0E8
:102FE0000E94C907009128281091292820912A2899
:102FF00030912B28601B710B820B930B683E734042
:1030000081059105B8F40E94C90760933228709336
:103010003328809334289093352882E080933F2B87
:103020001092402B1092412B1092422B0E94FB01D8
:103030000E94FF158091312B811104C010923E280F
:1030400010923028CF911F910F9108958F929F92E7
:10305000AF92BF92CF92DF92EF92FF92CF93DF9326
:103060000E94C907C090D42BD090D52BE090D62BCE
:10307000F090D72BAB01BC014C195D096E097F099B
:10308000453151056105710508F45EC0D701C601DF
:103090004496A11DB11D8093D42B9093D52BA09362
:1030A000D62BB093D72BC090D12BD12CF12CE12C67
:1030B000C114D104E104F10439F00E944C2CA701A1
:1030C00096010E94A42C6B010E944C2CD12CCC0C9C
:1030D000DD1CE091D22BF091D32BEC0DFD1DC081B6
:1030E000D1813DEC832E912CA12CB12CA501940112
:1030F0000E94A42C6E5C7F4F8F4F9F4F68830E946D
:103100004C2CE091D22BF091D32BEC0DFD1DC08106
:10311000D18122E330E040E050E00E94A42C69839A
:103120000E944C2C2091D22B3091D32BC20ED31E57
:10313000F601C081D181A50194010E94A42C6E5C8E
:103140007F4F8F4F9F4F6A83DF91CF91FF90EF901A
:10315000DF90CF90BF90AF909F908F9008958F9207
:103160009F92AF92BF92CF92DF92EF92FF920F9316
:103170001F93CF93DF9390913E28992309F4ACC617
:103180008C3008F004C2E82FF0E0E753F74E0C94BF
:103190002F2D3D19CC19201B5A1BB81B3D1C731C2D
:1031A000751CDE1C3A1D631DA91D0E94120180E0E2
:1031B0000E94160210922C2C1092392C8091362CE1
:1031C000815080933A2C8AE79CE20E94C9141092A5
:1031D000522C1092532C1092542C1092552C109269
:1031E000562C1092572C1092BB2B1092BC2B109285
:1031F000BD2B1092BE2B1092BF2B1092C02B8DE9CD
:103200009BE20E94E5138BE89BE20E94E51384E9B0
:103210009BE20E94E51382E89BE20E94E51389E7A6
:103220009BE20E94E51390E080E02091D12B2817CB
:10323000190618F19C01220F331FE091D22BF09157
:10324000D32BE20FF31F0190F081E02D1082E0916B
:10325000D22BF091D32BE20FF31F0190F081E02DE0
:103260001182E091D22BF091D32BE20FF31F01904A
:10327000F081E02D12820196D8CF8091922B81119E
:1032800005C01092932B81E08093922B0E94C90776
:1032900000918D2B10918E2B20918F2B3091902BA4
:1032A000601B710B820B930B683E73408105910587
:1032B000B8F00E94C90760938D2B70938E2B80937A
:1032C0008F2B9093902B8091932B8823B9F02AE534
:1032D0004FEF6DEA8BE89BE20E94B4131092932BA0
:1032E000DF91CF911F910F91FF90EF90DF90CF90E2
:1032F000BF90AF909F908F900C94290D8BE89BE22C
:103300000E94E51381E08093932BEACF82E89BE251
:103310000E94E5138BE89BE20E94E51389E79BE29C
:103320000E94E51384E99BE20E94E5131092BB2BF7
:103330001092BC2B1092BD2B1092BE2B1092BF2B63
:103340001092C02BD1E064E670E08DE99BE20E9410
:1033500084146D2F88EB9BE00E94630C80911328EE
:10336000811107C08091362C8093122881E08093D0
:103370001328DD23D9F08091362C809312281092E7
:10338000392C10922C2C90E070E060E0009731F026
:10339000680F791F0197FACFD0E0D5CF88EB9BE07B
:1033A0000E94072D60933B2C70933C2C80912C2C19
:1033B0008111A9C00E94C9070091322C1091332CB1
:1033C0002091342C3091352CAB01BC01401B510BAA
:1033D000620B730B80913B2C90913C2C092E000CBE
:1033E000AA0BBB0B481759076A077B07D0F10E944D
:1033F000C9076093322C7093332C8093342C9093B4
:10340000352C8091392C082E000C990B2091362CEC
:103410002817190609F00CF469C0C0E08091362C19
:103420004091392C909112282C2F0C2E000C330B2C
:103430008217130661F05CF0C4171CF060E0C9133A
:1034400001C064E6C9010E944302CF5FE7CF2FEFBE
:10345000290F20931228241304C09093392C8093B1
:103460001228DD2341F080917E2C80939B2C1092BA
:103470009E2C10921B2880919E2C8111B6C00E9418
:10348000C90700917A2C10917B2C20917C2C3091D3
:103490007D2C601B710B820B930B623371058105D0
:1034A000910508F449C00E94C90760937A2C709373
:1034B0007B2C80937C2C90937D2C20911B289091C9
:1034C0007E2C80919B2C21116FC02FEF290FE22FB2
:1034D000022E000CFF0BE658F34D31E027FD1EC015
:1034E0002817D4F0358321503197F8CF84E60E9415
:1034F00016021092392C8091362C8093122881E08C
:1035000080932C2CAECF8CE390E080933B2C909357
:103510003C2C0E948E0DA5CF1582E5CF87FD03C000
:10352000815080939B2C80919B2C87FF05C081E06C
:1035300080931B2890939B2CE3E48E2EECE29E2E2E
:10354000FAE0AF2EB12CAEE5CA2EACE2DA2EF12CA9
:10355000E12C08E51CE220E048E253E262E57CE26F
:103560008DE39CE20E94E30FBBE48B2EBCE29B2E1A
:10357000C2E6CC2ECCE2DC2E0CE51CE220E048E2D8
:1035800053E266E57CE28DE39CE20E94E30FDF916B
:10359000CF911F910F91FF90EF90DF90CF90BF9050
:1035A000AF909F908F9008959150E92F092E000CB5
:1035B000FF0BE658F34D21E097FD08C0981724F063
:1035C000158291503197F8CF2583FBCF87FD03C03B
:1035D000815080939B2C80919B2C87FFADCF81E005
:1035E00080939E2C10929B2CA7CF0E94D507A4CF2E
:1035F00082E89BE20E94E5138BE89BE20E94E513C0
:1036000089E79BE20E94E51384E99BE20E94E513AF
:103610001092BB2B1092BC2B1092BD2B1092BE2B84
:103620001092BF2B1092C02B1092522C1092532C40
:103630001092542C1092552C1092562C1092572CFC
:103640008DE99BE20E94E0131092A42B60E090E0D1
:1036500080E00E94630C4CE350E060E090E080E08A
:103660000E94B60C80913B2C90913C2C0E948E0DB8
:10367000DF91CF911F910F91FF90EF90DF90CF904E
:10368000BF90AF909F908F900C94D50789E79BE2F5
:103690000E94E51384E99BE20E94E5131092522CEC
:1036A0001092532C1092542C1092552C1092562C90
:1036B0001092572C0E94D4131092892B0E94CD1384
:1036C0001092922B8DE99BE20E94E0131092A42BA2
:1036D00060E090E080E00E947E0C60E090E080E09E
:1036E0000E94EB0D0E94310860E090E080E0DF91E5
:1036F000CF911F910F91FF90EF90DF90CF90BF90EF
:10370000AF909F908F900C947C11C1E089E79BE271
:103710000E94E51384E99BE20E94E51382E89BE2A4
:103720000E94E5131092522C1092532C1092542C9C
:103730001092552C1092562C1092572C84E690E043
:103740000E94EA138DE99BE20E94E0131092A42BE1
:103750006C2F84EC99E00E94EB0D6C2F84EC99E0C7
:103760000E947E0C0E94D5076C2F84EC99E0BFCF9D
:10377000C0E0E4CFC1E089E79BE20E94E51384E961
:103780009BE20E94E51382E89BE20E94E5131092FF
:10379000522C1092532C1092542C1092552C1092A3
:1037A000562C1092572C84E690E00E94EA138DE983
:1037B0009BE20E94E0131092A42B4CE350E06C2F8C
:1037C00084EC99E00E94B60C80913B2C90913C2CAB
:1037D0000E948E0D6C2F84EC99E00E94630C0E9475
:1037E00031089CEA892E9BE2992EAA24A394B12C3D
:1037F00037ECC32E3BE2D32EF12CE12C01EC1BE283
:103800002C2F44EC59E06BEB7BE286EA9BE20E94B2
:10381000E30F40EB842E4BE2942E59ECC52E5BE275
:10382000D52E03EC1BE22C2F44EC59E06DEB7BE230
:1038300086EA9BE20E94E30F64EB862E6BE2962EF3
:103840007BECC72E7BE2D72E05EC1BE22C2F44EC41
:1038500059E06FEB7BE286EA9BE20E94E30FDF9187
:10386000CF911F910F91FF90EF90DF90CF90BF907D
:10387000AF909F908F900C94F50DC0E094CF84E9A9
:103880009BE20E94E513C1E00E94CD131092922B9F
:1038900089E79BE20E94DB131092802B0E94D413D5
:1038A0001092892B8DE99BE20E94E0131092A42BC9
:1038B0008C2F0E94990C8C2F0E94DE0D0E9498087C
:1038C0006C2F80E29EE40E941111DF91CF911F9135
:1038D0000F91FF90EF90DF90CF90BF90AF909F90AF
:1038E0008F900C942618C0E0CFCF0E94C90700919A
:1038F0003A2810913B2820913C2830913D28601BAC
:10390000710B820B930B603177428105910580F139
:1039100080919B2B811105C010929C2B81E080939C
:103920009B2B0E94C9070091962B1091972B2091F9
:10393000982B3091992B601B710B820B930B643F7A
:10394000714081059105A0F00E94C9076093962BF4
:103950007093972B8093982B9093992B80919C2B0D
:10396000882321F184E99BE20E94DB1310929C2BB7
:103970000E94CD131092922B89E79BE20E94DB13E9
:103980001092802B0E94D4131092892B8DE99BE218
:103990000E94E0131092A42B80E00E94990C80E01A
:1039A0000E94DE0D0E94980860E08BCF84E99BE2C4
:1039B0000E94E51381E080939C2BDACF64E670E0EF
:1039C00084E99BE20E9484140E94CD131092922BF2
:1039D00089E79BE20E94DB131092802B0E94D41394
:1039E0001092892B8DE99BE20E94E0131092A42B88
:1039F00080E00E94990C80E00E94DE0D0E949808F1
:103A000060E088E99AE35FCF84E99BE20E94E513D6
:103A100089E79BE20E94E513C1E00E94CD1310925A
:103A2000922B84EF91E00E9437148DE99BE20E9473
:103A3000E0131092A42B0E94F50D6C2F80ED97E0FF
:103A40000E94EB0D6C2F80ED97E00E947E0C0E948F
:103A500031086C2F80ED97E0DF91CF911F910F918E
:103A6000FF90EF90DF90CF90BF90AF909F908F909E
:103A70000C947910C0E0D1CF89E79BE20E94E51356
:103A8000C1E084EF91E00E94371464E670E084E9BD
:103A90009BE20E9484148DE99BE20E94E013109245
:103AA000A42B0E94F50D6C2F88E893E10E94EB0D8A
:103AB0006C2F88E893E10E947E0C0E9431086C2FE5
:103AC00088E893E1C9CFC0E0DCCF8BE89BE20E949D
:103AD000E51384E99BE20E94E51389E79BE20E94DB
:103AE000E51382E89BE20E94E5131092BB2B109233
:103AF000BC2B1092BD2B1092BE2B1092BF2B10929C
:103B0000C02BC1E064E670E08DE99BE20E94841462
:103B100080911D28811107C08091362C80931C282C
:103B200081E080931D28CC23F1F08091362C809386
:103B30001C289FEF980F9093392C91E090932C2C98
:103B400090E070E060E0009731F0680F791F019716
:103B5000FACFC0E0D7CF88EB9BE00E94072D60939F
:103B60003B2C70933C2C80912C2C882309F4B8C0FA
:103B70000E94C9070091322C1091332C2091342CD3
:103B80003091352CAB01BC01401B510B620B730B08
:103B900080913B2C90913C2C092E000CAA0BBB0B66
:103BA000481759076A077B07C8F10E94C907609345
:103BB000322C7093332C8093342C9093352C80913D
:103BC000392C87FD83C0D0E02091362C30E09091D5
:103BD0001C284D2F0D2E000C550B421753076CF46B
:103BE0008091392CD8171CF060E09D1301C064E669
:103BF000CA010E944302DF5FE7CF81E0890F809313
:103C00001C28082E000C990B821793073CF080911A
:103C1000392C81508093392C80931C2809E1C02EC7
:103C2000D12C85E0E82EF12C0AE010E030E020E015
:103C30004EE150E06C2F88EB9BE00E941B09CC23E7
:103C400039F010929B2C81E080939E2C10922528B5
:103C500080919E2C882309F4D6C00E94C907009148
:103C60007A2C10917B2C20917C2C30917D2C601B28
:103C7000710B820B930B623371058105910508F47A
:103C80005CC00E94C90760937A2C70937B2C809350
:103C90007C2C90937D2C9091252880917E2C2091D6
:103CA0009B2C992301F190E030E041E0E32F032EBB
:103CB000000CFF0BE817F9070CF08FC0E658F34D26
:103CC00032170CF088C015823F5FF0CF80E00E9471
:103CD00016021092392C10921C2810922C2C9ECF78
:103CE0000E94290D9BCF90E030E041E0E32F032EAE
:103CF000000CFF0BE817F9074CF4E658F34D3217A8
:103D00001CF445833F5FF2CF1582FCCF422F022E79
:103D1000000C550B481759071CF42F5F20939B2C60
:103D200020919B2C022E000C330B281739072CF006
:103D300081E08093252810929B2CCC23E1F01092F7
:103D4000272881E08093022880930128109226285A
:103D5000809300288091522C9091532C9927809326
:103D6000522C9093532C1092542C1092552C10924C
:103D7000562C1092572C80912728811149C00E94FF
:103D8000C907665F7F4F8F4F9F4F613B744081052E
:103D9000910508F464CDA3E48A2EACE29A2EBAE031
:103DA000AB2EB12CDEE5CD2EDCE2DD2EEE24EA9446
:103DB000F12C08E51CE22C2F48EB5BE062E57CE28D
:103DC0008DE39CE20E94E30F882309F448CD81E053
:103DD0008093272844CD458377CF422F022E000CB5
:103DE000550B481759071CF42F5F20939B2C2091EB
:103DF0009B2C022E000C330B281739070CF49DCF97
:103E000010929E2C98CF8AE79CE20E94C91495CF0D
:103E1000C091022873E4872E7CE2972EEAE0AE2E52
:103E2000B12CFEE5CF2EFCE2DF2EF12CE12C08E5D3
:103E30001CE22C2F40E757E162E57CE28DE39CE237
:103E40000E94E30FC111109202288091262881114F
:103E500023C0C09101283BE4832E3CE2932E43E033
:103E6000A42EB12C52E6C52E5CE2D52EEE24EA94A7
:103E7000F12C0CE51CE22C2F40E15EE066E57CE2D3
:103E80008DE39CE20E94E30F80932628CC2309F463
:103E9000E6CC10920128E3CCC09100288BE4882E58
:103EA0008CE2982E95E0A92EB12C22E6C22E2CE2AF
:103EB000D22EF12CE12C0CE51CE22C2F48EB5BE020
:103EC00066E57CE28DE39CE20E94E30FCC2309F4DB
:103ED000C6CC10920028C3CC8C3008F058CBE82F09
:103EE000F0E0EB58F04E0C942F2DD5188619F81AE7
:103EF000461B851BBA1B3F1C751CDE1C041D3C1D8C
:103F0000651D1F920F920FB60F9211242F933F93AE
:103F10004F935F936F937F938F939F93AF93BF93D1
:103F2000CF93EF93FF93C091AB08C2FF0AC01092EA
:103F30006C2910926B2910926A2984E00E94EF028A
:103F400014C0C6FF2FC080916929813051F480913F
:103F50006C29E0916729F091682990E00995109209
:103F60006929C0FF14C00E94FF02FF91EF91CF9119
:103F7000BF91AF919F918F917F916F915F914F9181
:103F80003F912F910F900FBE0F901F90189580E4D6
:103F90008093AB0881E00E94EF028091AB0885FF1F
:103FA000E4CFE1CFC7FF5CC0C3FF08C010926C290B
:103FB00010926B2910926A2983E0C0CF8091A908E2
:103FC00080668093A9088091AB0881FF2CC0809106
:103FD0006B29882349F08091AB0884FF05C082E0FB
:103FE0008093AA0881E0AACF90916B2980916A29D9
:103FF0009817A8F4E0916B29809162299091632928
:10400000E80FF92FF11D80818093AD0880916B2915
:104010008F5F80936B2983E08093AA08A6CF82E00C
:104020008093AA088BCF90916C298091662998176C
:1040300090F48091AD08E0916C2920916429309131
:104040006529E20FF32FF11D808380916C298F5F2A
:1040500080936C29E0CF86E08093AA0882E06ECF3F
:1040600085E06CCF1F920F920FB60F9211242F9301
:104070003F938F939F93EF93FF938091A508982F81
:104080009C70E1F08091A50894E082FF93E090930A
:1040900077298093A50881E090E080936D29909323
:1040A0006E2910927829FF91EF919F918F913F9106
:1040B0002F910F900FBE0F901F90189586FF4EC046
:1040C00020917429909173298091A50884FF15C0CF
:1040D00080917029882379F083E08093A40885E09B
:1040E000809377291092782981E090E080936D2960
:1040F00090936E29D8CF81E0F0CF809172298217FA
:1041000090F4E09172298091752990917629E80FB9
:10411000F92FF11D80818093A808809172298F5F0B
:1041200080937229C0CF80917129891760F484E04F
:1041300090E080936D2990936E2980916F29816022
:104140008093A708B0CF80917029882329F083E05D
:104150008093A40881E0C4CF81E0FACF87FF40C0FC
:1041600090917129809173299817D8F48091A808AB
:10417000E09171292091602930916129E20FF32F9C
:10418000F11D8083809171298F5F809371299091B7
:104190007329809171298917D8F482E08093A4084B
:1041A00082CF80917029882389F087E08093A408CA
:1041B00082E0809377291092782981E090E08093C3
:1041C0006D2990936E29109273296DCF85E0EECF03
:1041D00080917029882311F087E0BACF85E0B8CFAD
:1041E00086E07ECF1F920F920FB60F9211242F936D
:1041F0003F934F935F936F937F938F939F93AF936F
:10420000BF9340914628509147286091482870916B
:104210004928809144289091452820914228309146
:104220004328420F531F611D711D2091402830917A
:104230004128820F931F883E23E0920730F0885E6A
:1042400093404F5F5F4F6F4F7F4F80934428909311
:1042500045284093462850934728609348287093F8
:10426000492880914E2890914F28A0915028B091D4
:1042700051280196A11DB11D80934E2890934F287F
:10428000A0935028B093512881E08093B60ABF9143
:10429000AF919F918F917F916F915F914F913F91DE
:1042A0002F910F900FBE0F901F9018951F920F9295
:1042B0000FB60F9211242F933F934F935F936F93F9
:1042C0007F938F939F93AF93BF93EF93FF9387EA6F
:1042D00099E20E943105FF91EF91BF91AF919F91BB
:1042E0008F917F916F915F914F913F912F910F909F
:1042F0000FBE0F901F9018951F920F920FB60F923E
:1043000011242F933F934F935F936F937F938F93DA
:104310009F93AF93BF93EF93FF9387EA99E20E9435
:10432000880EFF91EF91BF91AF919F918F917F91F7
:104330006F915F914F913F912F910F900FBE0F9012
:104340001F9018951F920F920FB60F9211242F9362
:104350003F934F935F936F937F938F939F93AF930D
:10436000BF93EF93FF9382E49AE20E943105FF919D
:10437000EF91BF91AF919F918F917F916F915F91DD
:104380004F913F912F910F900FBE0F901F90189556
:104390001F920F920FB60F9211242F933F934F93BA
:1043A0005F936F937F938F939F93AF93BF93EF939D
:1043B000FF9382E49AE20E94880EFF91EF91BF91F1
:1043C000AF919F918F917F916F915F914F913F91AD
:1043D0002F910F900FBE0F901F901895CF92DF92E4
:1043E000EF92FF920F931F93CF93DF93EC016B013A
:1043F0008A01198218861F86188A198A1A8A81E00A
:104400008E878B871C8692E09D8788837B01EE0CCC
:10441000FF1CE60EF71EEC82FD82C7010E943C2DB8
:1044200089879A87009791F1A70170E060E00E9468
:10443000612ECA82DB820E831F838981882351F01B
:1044400061E070E0802F0E94240670E060E0802F21
:104450000E94AF06F801E057F24680818630D8F41A
:1044600020E2829FC00111249C5F04968B8B9C8B61
:10447000F801EA58F24680818D8BDF91CF911F9130
:104480000F91FF90EF90DF90CF9008951C821D82D6
:104490001A821B82D0CF90E080E0E7CF0F931F936A
:1044A000CF93DF931092A9291092AA2948EE53E0E6
:1044B00060E070E04093AB295093AC296093AD2944
:1044C0007093AE298EEA9DE98093A7299093A8293D
:1044D00020E238E02093B3293093B4291092B52913
:1044E00021E02093B62924E02093B7291092B9291E
:1044F0001092BA291092BB291092BC292BE120936B
:10450000BD291092BE291092BF291092402A109204
:10451000412A1092442A1092452A4093462A5093E9
:10452000472A6093482A7093492A8093422A90939D
:10453000432A80E698E080934E2A90934F2A88E1A0
:104540008093502A89E18093512A80E48093522AF3
:104550001092542A1092552A1092562A1092572AD5
:1045600086E28093582A1092592A10925A2A109261
:10457000DB2A1092DC2A8AE080937E2C80939F2C89
:104580001092A02C9BE09093A12C8093A22C89E008
:104590008093A32CC9E0D0E0C093F42CD093F52CE9
:1045A0008AE090E08093F62C9093F72C8BE090E0DB
:1045B0008093F82C9093F92C81E090E08093FA2C72
:1045C0009093FB2C61E070E089E00E94240661E09A
:1045D00070E08091F62C0E94240661E070E08091EA
:1045E000F82C0E94240661E070E08091F82C0E9473
:1045F000AF06C093F42CD093F52CE4EBFCE21192BF
:104600008CE2E43FF807D9F7D0E0C0E08091FA2CC3
:104610009091FB2CC817D90774F540E06FE0CE01EC
:104620000E94D7148091FA2C9091FB2CC817D907BF
:104630002CF447E06BE0CE010E94D71440E069E023
:10464000CE010E94D7148091FA2C9091FB2CC817B0
:10465000D9071CF4CE010E9447158091FA2C909145
:10466000FB2CC817D9072CF440E06CE0CE010E9467
:10467000D7142196CBCF48E050E06DE270E084E69D
:104680009CE20E94EE2184E69CE280933D2C909374
:104690003E2C10924F2C26E02093502C10923F2C51
:1046A0001092402C1092412C1092422C1092432CCC
:1046B0001092442C1092452C1092462C1092472CAC
:1046C0001092482C1092492C10924A2C10924B2C8C
:1046D00010924C2C10924D2C10924E2C27E02093CF
:1046E000512C1092522C1092532C1092542C109248
:1046F000552C1092562C1092572C80932D2C909361
:104700002E2C10922F2C83E28093302C8CE28093FD
:10471000312C1092322C1092332C1092342C109297
:10472000352C8AE08093362C84E190E00E943C2D69
:104730008093372C9093382CEC018C010C5E1F4F2A
:10474000C017D10739F083E090E00E943C2D899397
:104750009993F6CF10922C2C1092392C89E08093EB
:104760003A2C84E69CE28093EE2B9093EF2B1092F0
:10477000F02B87E08093F52B8DE08093F62B8EE075
:104780008093F72B84E18093F82B85E18093F92BBC
:104790008BE18093FA2B8CE18093FB2B92E2909338
:1047A000FC2B8093FD2B88E390E00E943C2D8093AE
:1047B000FE2B9093FF2BEC011DE1115039F083E0AB
:1047C00090E00E943C2D89939993F7CF1092F12BA2
:1047D0001092F22B1092F32B1092F42B8EE190E0BA
:1047E0008093002C9093012C1092022C1092032C99
:1047F0008AE090E08093042C9093052C85E090E073
:104800008093062C9093072C89E190E08093082CEC
:104810009093092C10920C2C10920D2C10920E2CAF
:1048200010920F2C1092102C1092112C1092122C0E
:104830001092132C81E08093142C1092152C10925E
:10484000162C1092172C1092182C1092192C1092D2
:104850001A2C10921B2C10921C2C10921D2C1092B2
:104860001E2C10921F2C1092202C1092212C109292
:10487000222C1092232C1092242C1092252C109272
:10488000262C1092272C1092282C1092292C109252
:104890002A2C10922B2C4CE050E06DE070E088ED5B
:1048A0009BE20E94EE2188ED9BE28093CD2B9093BA
:1048B000CE2B86E08093CF2B8CE08093D02B87E0AB
:1048C0008093D12B8EE090E00E943C2D8093D22BE0
:1048D0009093D32BEC018C01025F1F4FC017D107BF
:1048E00039F083E090E00E943C2D89939993F6CFB4
:1048F0001092D42B1092D52B1092D62B1092D72B2E
:1049000088ED9BE28093A62B9093A72B21E0209328
:10491000B82B2093B92B1092A82B1092A92B109290
:10492000AA2B1092AB2B1092AC2B1092AD2B1092A5
:10493000AE2B1092AF2B1092B02B1092B12B109285
:10494000B22B1092B32B1092B42B1092B52B109265
:10495000B62B1092B72B2093BA2B1092BB2B109230
:10496000BC2B1092BD2B1092BE2B1092BF2B10921D
:10497000C02B80939D2B90939E2B1092A32B109273
:104980009F2B1092A02B1092A12B1092A22B109271
:10499000A42B1092A52B8093942B9093952B32E00F
:1049A00030939A2B1092962B1092972B1092982B53
:1049B0001092992B10929B2B10929C2B80938B2BF7
:1049C00090938C2B33E03093912B10928D2B10927F
:1049D0008E2B10928F2B1092902B1092922B109264
:1049E000932B8093822B9093832B35E03093882BED
:1049F0001092842B1092852B1092862B1092872B6D
:104A00001092892B10928A2B8093792B90937A2B7A
:104A100084E080937F2B10927B2B10927C2B109242
:104A20007D2B10927E2B1092802B1092812B109256
:104A3000512B1092522B1092532B1092542B1092F8
:104A4000552B1092562B1092572B1092582B1092D8
:104A5000592B10925A2B10925B2B10925C2B1092B8
:104A60005D2B1092622B1092632B89E180936C2B4B
:104A700086E980936D2B8FE080936E2B1092702BC4
:104A80002093712B1092722B1092732B1092642B27
:104A90001092652B1092662B1092672B1092682B48
:104AA0001092692B10926A2B10926B2B80936F2BB4
:104AB0001092392B1092742B1092752B1092762B2A
:104AC0001092772B80E180932F2B1092302B109235
:104AD000312B1092322B1092332B1092342B1092D8
:104AE000352B1092362B1092372B1092382B81E1F8
:104AF0008093252B1092262B1092272B1092282B77
:104B00001092292B10922A2B10922B2B10922C2BC7
:104B100010922D2B10922E2B82E180931B2B109242
:104B20001C2B10921D2B10921E2B10921F2B1092DB
:104B3000202B1092212B1092222B1092232B1092BB
:104B4000242B83E18093112B1092122B1092132BA4
:104B50001092142B1092152B1092162B1092172BCB
:104B60001092182B1092192B10921A2B85E180931A
:104B7000072B1092082B1092092B10920A2B1092DF
:104B80000B2B10920C2B10920D2B10920E2B1092BF
:104B90000F2B1092102B1092F22A1092F32A80ED14
:104BA0009DE98093032B9093042B8CEC9DE98093DB
:104BB000052B9093062B1092F52A1092F62A10924C
:104BC000F72A1092F82A1092FD2A1092FE2A1092CB
:104BD000FF2A1092002B1092012B1092022B1092A0
:104BE000DD2A1092DE2A88EC9DE98093EE2A9093CC
:104BF000EF2A84EC9DE98093F02A9093F12A109299
:104C0000E02A1092E12A1092E22A1092E32A1092EE
:104C1000E82A1092E92A1092EA2A1092EB2A1092BE
:104C2000EC2A1092ED2ADF91CF911F910F910895F8
:104C300088ED90E084BF9093610080E094E2A4EF5F
:104C4000B0E08093032890930428A0930528B093A4
:104C500006288091020686608093020680910006F5
:104C6000816080930006809102068F7C809302060B
:104C70008091A0008F788093A000809102068061CF
:104C8000809302061092E20581E08093E40583E0C0
:104C90008093010A8FEF90E08093260A9093270A71
:104CA00080E890E08093380A9093390A80933A0A1A
:104CB00090933B0A80933C0A90933D0A8BE080934B
:104CC000000A8091E50581608093E5058091E50506
:104CD00082608093E505E0E8FAE027E0DFEF90E806
:104CE00085E02183D487958780837096E03C3AE005
:104CF000F307B9F780E094E080934C2890934D2817
:104D000080914C2890914D282FEF30E0B9010E94FE
:104D1000072D60934A2870934B2880914C289091DE
:104D20004D28E8EEF3E0BF010E94072D6093422872
:104D30007093432880914C2890914D28BF010E9488
:104D4000072D80934028909341282093BC0A3093EC
:104D5000BD0A8091B50A81608093B50A84E0809392
:104D6000B00A8091B00A81608093B00A789440E8DC
:104D700055E260E070E087EA99E20E94AB1382E3BB
:104D800090E0A0E0B0E080935E2B90935F2BA09327
:104D9000602BB093612B1092512B80935A2B9093E0
:104DA0005B2BA0935C2BB0935D2B0E94C907609393
:104DB000562B7093572B8093582B9093592B87EA3F
:104DC00099E280933A2B90933B2B1092502B9EE7C5
:104DD00090933C2BD0933D2BC6E0C0933E2B8FEE9F
:104DE0008093452B9093462BD093472BC093482B11
:104DF00080934F2B60916D2B70E090E080E00E94DB
:104E0000990780916E2B8F3160F4C0933F2B1092E5
:104E1000402B1092412B8093422B0E94FB010E9459
:104E2000FF1560916D2B70E090E080E00E94990783
:104E300089E080933F2B1092402B1092412B82E00F
:104E40008093422B0E94FB010E94FF1560916D2B05
:104E500070E090E080E00E94990787E080933F2B0C
:104E60001092402B1092412B81E08093422B0E94A4
:104E7000FB010E94FF1560916D2B70E090E080E0D7
:104E80000E94990786E180933F2B1092402B10924D
:104E9000412B1092422B0E94FB010E94FF15609152
:104EA0006D2B70E090E080E00E9499078AE180938A
:104EB0003F2B1092402B1092412B1092422B0E94BC
:104EC000FB010E94FF1560916D2B70E090E080E087
:104ED0000E94990789E180933F2B1092402B1092FA
:104EE000412B1092422B0E94FB010E94FF15609102
:104EF0006D2B70E090E080E00E9499071092722B79
:104F000070E060E080E00E94EE051092732B0E943A
:104F1000C907609332287093332880933428909384
:104F2000352884E69CE20E94CE0F84E69CE20E9433
:104F300062024091682C5091692C70E060E0809191
:104F40006D2C90916E2C0E94612E84E69CE20E9452
:104F5000FF0E0E94120180E00E94160210922C2C7B
:104F60001092392C8091362C815080933A2C1092DB
:104F7000522C1092532C1092542C1092552C1092AB
:104F8000562C1092572C88ED9BE20E94CE0F88ED94
:104F90009BE20E9462024091DC2B5091DD2B70E07D
:104FA00060E08091E12B9091E22B0E94612E88EDD0
:104FB0009BE20E94FF0E1092BB2B1092BC2B109212
:104FC000BD2B1092BE2B1092BF2B1092C02B8DE9DF
:104FD0009BE20E94E5138BE89BE20E94E51384E9C3
:104FE0009BE20E94E51382E89BE20E94E51389E7B9
:104FF0009BE20E94E513E2E0FDE9ACEFBCE28AE34C
:105000009DE920812C93218111962C931197329642
:1050100012968E179F07A9F761E070E08091A12C8E
:105020000E94240661E070E08091A22C0E94240678
:1050300061E070E08091A32C0E9424068091FA2CFC
:105040009091FB2C1816190634F441E06CE090E0C6
:1050500080E00E94D7148091FA2C9091FB2C1816B6
:10506000190634F448E06AE090E080E00E94D7142A
:105070008091FA2C9091FB2C1816190624F490E0DC
:1050800080E00E9447158AE79CE20E94C9148AE7E3
:105090009CE20E94C9140E9467158FE29BE20E9465
:1050A0003E1285E29BE20E943E128BE19BE20E944F
:1050B0003E1281E19BE20E943E1287E09BE20E9449
:1050C0003E1282EF9AE20E94DB128DED9AE20E947C
:1050D000DB12EEED8E2EE3E09E2EA12CB12C11E022
:1050E000F0E0EF2EF0E0FF2EA6E0DA2ED1E00E94F5
:1050F0006715C0E08C2F0C2E000C990B2091FD2B16
:105100002817190611F10CF12091F02B6091F52B65
:105110006C0F222319F06091FC2B6C1B880F991FD8
:105120002091FE2B3091FF2B820F931FDC01ED911C
:10513000FC9170E00281218140818091EE2B909161
:10514000EF2B0E94AF0ECF5FD5CFC0E08C2F0C2E7F
:10515000000C990B2091362C2817190611F10CF12F
:1051600020912F2C6091302C6C0F222319F060912C
:10517000312C6C1B880F991F2091372C3091382CC3
:10518000820F931FDC01ED91FC9170E0028121817F
:10519000408180912D2C90912E2C0E94AF0ECF5FDC
:1051A000D5CF86EA9BE20E94D8118DE39CE20E9453
:1051B000D811C0E08091D12BC817F0F48C2F90E06B
:1051C0009C01220F331FE091D22BF091D32BE20FE1
:1051D000F31F0190F081E02D6091CF2B680F792FA4
:1051E000711D0281218140818091CD2B9091CE2B28
:1051F0000E94AF0ECF5FDECF88ED9BE20E94FF0ED4
:1052000084E69CE20E94FF0E8FE29BE20E94F8116E
:1052100085E29BE20E94F8118BE19BE20E94F8116B
:1052200081E19BE20E94F81187E09BE20E94F81165
:1052300082EF9AE20E948E128DED9AE20E948E1207
:105240008091732B882309F469C0C0916E2B0E9452
:10525000C9074090362850903728609038287090C1
:10526000392864197509860997096A3F710581050E
:10527000910508F43FC00E94C907609336287093D7
:10528000372880933828909339288091732B88236E
:1052900089F18091722BE82FF0E0E65CF2468E30C7
:1052A00008F053C080812FEF30E08F3088F4809376
:1052B00006061093080680910B0680FFFCCF9FB76F
:1052C000F89480911006209111069FBF322F282F4D
:1052D000A0916C2B032E000C440B550B2A50310966
:1052E00041095109B0E00E94C32CA50194010E941C
:1052F000A42CC22F80916E2B8C1781F0C0936E2B43
:10530000CF3160F4D0923F2B1092402B1092412B62
:10531000C093422B0E94FB010E94FF15E0913F28A1
:10532000EC30C8F4F0E0E756F64DC0913E280C94FE
:105330002F2DA729CD29EA29062A2E2A502A6C2AA0
:10534000A42AF12A392B4D2B662B3E97ABCFCC23C9
:1053500049F0C130A1F0E114F10409F4C8CE0E9473
:105360000000C5CE60E080E00E94FD1680913F28DD
:105370000E94AF188DED9AE20E944412E0C080E0D6
:105380000E940A1380E00E94AF180E94671761E034
:105390008091272B0E943513DECFCC23C1F0C13082
:1053A000D1F680E00E940A1381E00E94AF180E94AB
:1053B00067178091272B6BE08C270E94351362E0E2
:1053C0008111C9CF80913F280E944513C4CF60E06E
:1053D00081E0CACFCC23B9F0C13009F0BCCF81E065
:1053E0000E940A1382E00E94AF180E946717809102
:1053F000272B6BE08C270E9435138111ACCF64E022
:1054000080911D2BC7CF61E082E0AECFCC2319F194
:10541000C13009F0A0CF81E00E940A1383E00E940E
:10542000AF180E9467178091272B6BE08C270E9492
:105430003513811190CF80911D2B65E08C270E9440
:105440003513811188CF8091132B811102C0809177
:10545000092B66E09FCF61E083E086CFCC23E9F0A3
:10546000C13009F078CF80E00E940A1384E00E94E6
:10547000AF180E9467178091272B6BE08C270E9442
:105480003513811168CF80911D2B65E08C270E9418
:10549000351363E081115FCF95CF60E084E064CF86
:1054A000CC23B9F0C13009F056CF80E00E940A1336
:1054B00085E00E94AF180E9467178091272B6BE050
:1054C0008C270E943513811146CF64E080911D2BFB
:1054D00074CF60E085E048CFCC2329F1C13009F0DA
:1054E0003ACF80E00E940A1386E00E94AF188DED4B
:1054F0009AE20E945C120E9467178091272B6BE052
:105500008C270E943513811126CF9091132B911176
:1055100003C08091092B8C2769E00E94351367E056
:10552000811119CF4FCF60E086E00E94FD16809177
:105530003F280E94AF188DED9AE20E945C1282EF24
:105540009AE20E94441288C0CC2309F447C0C130BB
:1055500009F001CF81E00E940A1387E00E94AF1892
:105560008DED9AE20E945C120E9467178091272BB2
:105570006BE08C270E9435138111EDCE9091132B97
:10558000911103C08091092B8C2769E00E9435138B
:105590008111E1CE8091132B81118091092B68E05C
:1055A0000E9435138111D7CE0E94C90740903A2836
:1055B00050903B2860903C2870903D2864197509F4
:1055C0008609970960347C498105910508F4C3CEAA
:1055D00088E080933F2810923E28BDCE61E087E0AE
:1055E000A4CFCC2349F1C13009F0B5CE80E00E94B0
:1055F0000A1388E00E94AF188DED9AE20E945C12B7
:1056000082EF9AE20E945C120E9467178091272B1A
:105610006BE08C270E94351381119DCE9091132B46
:10562000911103C08091092B8C276AE00E943513E9
:105630006AE0811190CEC6CE60E088E00E94FD163F
:1056400080913F280E94AF188DED9AE20E945C1273
:1056500082EF9AE20E945C120E94C90760933A2886
:1056600070933B2880933C2890933D28D0933E280C
:1056700072CECC2379F0C13009F06DCE80E00E946B
:105680000A1389E00E94AF180E9467178091272BA8
:105690006BE0FCCE60E089E067CECC2371F0C130D6
:1056A00009F059CE80E00E940A138AE00E94AF18E8
:1056B00082EF9AE20E945C12E7CF60E08AE00E94EB
:1056C000FD1680913F280E94AF18C2CFCC23A1F0D5
:1056D000C13009F040CE80E00E940A138BE00E94A6
:1056E000AF180E94671761E08091272B0E94351345
:1056F000811131CE60E066CE60E08BE035CECF9395
:10570000DF93D0E0C0E08091D22B9091D32B2091F9
:10571000D12B2C171D0679F074F09E01220F331F38
:10572000820F931FFC0180819181009711F00E94EC
:10573000D82D2196E8CF009711F00E94D82D8091A6
:10574000E12B9091E22B0E94D82D8091DE2B90913D
:10575000DF2B97FD04C070E060E00E942406D0E0DB
:10576000C0E08091FE2B9091FF2B2091FD2B2C17F8
:105770001D0679F074F09E01220F331F820F931FD4
:10578000FC0180819181009711F00E94D82D219613
:10579000E8CF009711F00E94D82DD0E0C0E08091B2
:1057A000372C9091382C2091362C2C171D0679F02F
:1057B00074F09E01220F331F820F931FFC01808122
:1057C0009181009711F00E94D82D2196E8CF009783
:1057D00011F00E94D82D80916D2C90916E2C0E941A
:1057E000D82D80916A2C90916B2C97FD06C070E0AB
:1057F00060E0DF91CF910C942406DF91CF91089562
:105800008F929F92AF92BF92CF92DF92EF92FF92D0
:10581000CF93DF93EC01688179818A819B81611547
:1058200071058105910521F464E279ED8BE597E03E
:105830002DE133EF41E050E00E94A42C49015A01D0
:105840009B01AC01A7EAB1E40E94C32C6B017C016F
:10585000ACEEB4EFA50194010E94D12CC60ED71E68
:10586000E81EF91EF7FE06C081E0C81AD108E1085B
:1058700080E8F80AC882D982EA82FB82C701B601B1
:105880009F77DF91CF91FF90EF90DF90CF90BF9007
:10589000AF909F908F9008958F929F92AF92BF92FA
:1058A000CF92DF92EF92FF926091082870910928C1
:1058B00080910A2890910B28611571058105910549
:1058C00021F464E279ED8BE597E02DE133EF41E0DF
:1058D00050E00E94A42C49015A019B01AC01A7EAA7
:1058E000B1E40E94C32C6B017C01ACEEB4EFA501C6
:1058F00094010E94D12CC60ED71EE81EF91EF7FE99
:1059000006C081E0C81AD108E10880E8F80AC09210
:105910000828D0920928E0920A28F0920B28C701A3
:10592000B6019F77FF90EF90DF90CF90BF90AF9040
:105930009F908F9008956093082870930928809312
:105940000A2890930B280895052E97FB1EF40094C7
:105950000E94BB2C57FD07D00E94D62C07FC03D019
:105960004EF40C94BB2C50954095309521953F4FAB
:105970004F4F5F4F089590958095709561957F4F3B
:105980008F4F9F4F08950E94F82CA59F900DB49FB4
:10599000900DA49F800D911D11240895B7FF0C94C4
:1059A000C32C0E94C32C821B930B0895A1E21A2ED4
:1059B000AA1BBB1BFD010DC0AA1FBB1FEE1FFF1FB3
:1059C000A217B307E407F50720F0A21BB30BE40B03
:1059D000F50B661F771F881F991F1A9469F760954A
:1059E0007095809590959B01AC01BD01CF01089504
:1059F000A29FB001B39FC001A39F700D811D112410
:105A0000911DB29F700D811D1124911D0895AA1B37
:105A1000BB1B51E107C0AA1FBB1FA617B70710F099
:105A2000A61BB70B881F991F5A95A9F780959095CB
:105A3000BC01CD01089597FB072E16F4009407D002
:105A400077FD09D00E94072D07FC05D03EF4909504
:105A500081959F4F0895709561957F4F0895EE0F42
:105A6000FF1F0590F491E02D09940E94F82CB7FFD8
:105A70000895821B930B08950F931F93CF93DF9389
:105A80008230910510F482E090E0E091362DF091A3
:105A9000372D30E020E0B0E0A0E0309799F42115F8
:105AA000310509F44AC0281B390B24303105D8F5DB
:105AB0008A819B816115710589F1FB018283938342
:105AC000FE0111C04081518102811381481759079D
:105AD000E0F04817590799F4109761F012960C936B
